:100000000C9434000C94750B0C949E0B0C94C70B41
:100010000C9451000C9451000C9451000C9451001C
:100020000C9451000C94620C0C9451000C94090C2B
:100030000C9451000C9451000C9451000C945100FC
:100040000C9426090C9451000C9451000C9451000E
:100050000C9451006001640168016C01700174012D
:1000600078017C018001840111241FBECFE5D8E016
:10007000DEBFCDBF12E0A0E6B0E0EAEBF9E102C0DE
:1000800005900D92AC3FB107D9F723E0ACEFB2E099
:1000900001C01D92A731B207E1F70E9410020C9433
:1000A000DB0C0C9400002091FF0230910003A8E8C3
:1000B000B3E10E94CC0C9B01AC01012E1AE05695D5
:1000C0004795379527951A95D1F7102D309313033F
:1000D00020931203ADECBCEC0E94CC0C9695879556
:1000E000969587959695879580931403089581E05A
:1000F0008093160304C00E942E078093FC02809117
:10010000FC028823C1F3089560E080E00E9460084B
:1001100081E790E00E94490860E081E00E94600869
:1001200081E990E00E9449082FEF89E698E121508B
:1001300080409040E1F700C000000E945C082FEF73
:1001400089E698E1215080409040E1F700C000002E
:100150008BE990E00E94490860E081E00E9460081D
:1001600089EA90E00E94490881E890E00E94AA0C88
:100170008DE00E949D0C8AE990E00E94AA0C8DE01F
:100180000E949D0C88EA90E00E94AA0C8DE00E94DB
:100190009D0C089561E08FE20E945C098DE00E9451
:1001A0009D0C81EB90E00E94AA0C8DE00E949D0CBA
:1001B0008EEB90E00E94AA0C0E94B7068133B1F446
:1001C00061E08FE20E946E0A8FE39FE10197F1F7F1
:1001D00000C0000062E08FE20E946E0A8DE00E9483
:1001E0009D0C8EEC90E00E94AA0C08958233C1F41D
:1001F00061E08FE20E946E0A8FE697E10197F1F7C6
:1002000000C0000062E08FE20E946E0A8DE00E9452
:100210009D0C8CEC90E00E94AA0C8DE00E949D0C3D
:1002200008958DE00E949D0C83ED90E00E94AA0C41
:100230008DE00E949D0C80EE90E00E94AA0C8DE063
:100240000E949D0C0E94B706813381F480E00E94D9
:100250009E0881E00E949E0882E00E949E0883E042
:100260000E949E0884E00E949E080895823379F4DB
:1002700080E00E94C40881E00E94C40882E00E94DD
:10028000C40883E00E94C40884E00E94C408089562
:100290008DE00E949D0C8EEE90E00E94AA0C8DE0F5
:1002A0000E949D0C0E94B706882389F190E0FC0112
:1002B000F097EA30F10558F5E65DFF4F0C94C60C57
:1002C00082E00E94070C089589E10E94070C0895BE
:1002D00082E30E94070C08958BE40E94070C0895A6
:1002E00084E60E94070C08958DE70E94070C08958C
:1002F00086E90E94070C08958FEA0E94070C089572
:1003000088EC0E94070C08958AEF0E94070C08955C
:1003100043E550E06FEF72E080E00E94FD08089531
:100320000E94880180911503813061F4809114034B
:100330008C3118F00E94D3060895853128F40E946C
:10034000E00608950E94E0060895CF93DF9388E0C9
:1003500091E00E94AA0C809114038823E1F32FEF0F
:1003600080E792E0215080409040E1F700C000001B
:10037000809114039DEC899F912D1124969596955B
:100380009695D0E3D90F990F292F220F220F920FA4
:10039000891BC0E3C80F8DE00E949D0C2FEF80E702
:1003A00092E0215080409040E1F700C0000085E1DC
:1003B00091E00E94AA0C2FEF80E792E0215080404C
:1003C0009040E1F700C000008D2F0E949D0C2FEFA0
:1003D00080E792E0215080409040E1F700C00000AB
:1003E0008C2F0E949D0C8DE00E949D0C80E391E07B
:1003F0000E94AA0C8DE00E949D0C8FE391E00E9468
:10040000AA0C0E94B706813321F481E08093150382
:1004100004C0823311F410921503DF91CF91089537
:10042000CF93DF93CDB7DEB7A8970FB6F894DEBFB2
:100430000FBECDBF0E940D080E9480060E94B40628
:100440000E94BA060E94EA080E94BA060E94440C62
:1004500080E991E00E945D0C0E94F20B82E00E9414
:10046000070C0E944C0B61E087E10E945C090E942E
:10047000F00B80E00E94780881E00E94780882E01A
:100480000E94780883E00E94780884E00E9478083F
:100490000E94ED0667E770E080E00E94670BFE01B6
:1004A000319688E2DF011D928A95E9F70E94840067
:1004B00080E004C00E94B706811104C09091160329
:1004C0009923C1F3813459F0813671F09091FC0287
:1004D0009134A1F70F2EF5E1FF2EF02D09C00F2E5C
:1004E000F4E1FF2EF02D04C00F2EF4E1FF2EF02DCD
:1004F00080E090E00E94A306082F8F3F09F0A0C083
:100500008DE491E00E94AA0CBFEF2EE984E2B15085
:1005100020408040E1F700C000008DE00E949D0C6B
:1005200089E791E00E94AA0C8DE00E949D0C10E0EA
:100530002CC00E94B7068D30E1F49091FD0291111C
:1005400018C087E891E00E94AA0C9FEFAEE9B4E2E0
:100550009150A040B040E1F700C000008DE00E9443
:100560009D0C89E791E00E94AA0C8DE00E949D0CF1
:100570000CC08D3071F049F091E09093FD02682F2E
:10058000812F90E00E948A061F5F8091FE028823DF
:1005900081F21092FD028DE00E949D0C2FEF8EE9FA
:1005A00094E2215080409040E1F700C000008FE9C4
:1005B00091E00E94AA0C8DE00E949D0C3CC00E941C
:1005C000B7068D30E1F49091FD02911118C088E8D2
:1005D00091E00E94AA0CAFEFBEE924E2A150B04026
:1005E0002040E1F700C000008DE00E949D0C89EAE8
:1005F00091E00E94AA0C8DE00E949D0C1CC08D30E1
:1006000051F091E09093FD02682F812F90E00E94BD
:100610008A061F5F10C08D3071F464E2812F90E074
:100620000E948A061F5F612F8FEF90E00E948A066A
:1006300081E08093FE028091FE02882309F4BFCFFF
:1006400081E08093FD0284E1F8123BC284EB91E0EB
:100650000E94AA0C8DE00E949D0CBCC08DEB91E025
:100660000E94AA0C10E0FF24F39427C00E94B70652
:100670008D3081F49091FD0291110CC087E891E0DA
:100680000E94AA0C8DE00E949D0C8CEB91E00E94D0
:10069000AA0C13C08D3021F41092FD02F12C0DC074
:1006A0008D3059F091E09093FD02E1E0F0E0EC0F25
:1006B000FD1FE10FF11D80831F5F91E0F916B1F27C
:1006C0008DE00E949D0C81EC91E00E94AA0C8DE0CF
:1006D0000E949D0C2BC00E94B7068D3099F490911A
:1006E000FD0291110FC087E891E00E94AA0C8DE0F5
:1006F0000E949D0C81EC91E00E94AA0C8DE00E946A
:100700009D0C14C08D3029F41092FD02FF24F39447
:100710000DC08D3059F091E09093FD02E1E0F0E0E2
:10072000EC0FFD1FE10FF11D80831F5FFF2099F289
:10073000F12C10E047C08F2D90E00E94A306082FF7
:10074000F394843209F441C0E1E0F0E0EC0FFD1FC6
:10075000E10FF11D80810817A1F18DE00E949D0C31
:100760008DEC91E00E94AA0C8DE00E949D0C80917E
:100770006000823069F0833019F0813031F510C0AB
:100780008CED91E00E94AA0C8DE00E949D0C1DC092
:100790008CEE91E00E94AA0C8DE00E949D0C15C089
:1007A0008DE00E949D0C8BEF91E00E94AA0C8DE0E1
:1007B0000E949D0C86E092E00E94AA0C0E94850691
:1007C000FDCF1F5F183208F4B6CF809160008150D2
:1007D00080936000043209F041CF8DE00E949D0CAF
:1007E00083E192E00E94AA0C8DE00E949D0C85E2BC
:1007F00092E00E94AA0C8DE00E949D0C81E392E0A1
:100800000E94AA0C8DE00E949D0C80E492E00E9460
:10081000AA0C8FEF90E00E94A306182F0E94B70643
:10082000823309F482C0833309F4F8C08133F9F6C6
:100830008DE00E949D0C88E492E00E94AA0C0E9428
:10084000B7068D3099F49091FD0291110FC087E8A1
:1008500091E00E94AA0C8DE00E949D0C88E492E039
:100860000E94AA0C8DE00E949D0CE9CF8D30A1F46E
:100870001092FD02612F8FEF90E00E948A068DE0BA
:100880000E949D0C8EE492E00E94AA0C8FEF90E0F3
:100890000E94A306182F0CC08D3089F291E090932E
:1008A000FD02682F812F90E00E948A061F5FC7CF4C
:1008B0000E94B7068D3099F49091FD0291110FC0FE
:1008C00087E891E00E94AA0C8DE00E949D0C8EE4C6
:1008D00092E00E94AA0C8DE00E949D0CE9CF8D3021
:1008E00051F091E09093FD02682F812F90E00E94DB
:1008F0008A061F5FDDCF8D30D9F664E2812F90E04C
:100900000E948A061092FD0261E0610F8FEF90E075
:100910000E948A068DE00E949D0C89E592E00E946B
:10092000AA0C8DE00E949D0C62CF8DE00E949D0C70
:1009300085E692E00E94AA0C84E792E00E94AA0C4D
:100940008DE00E949D0C00E010E00E94B7068D3003
:1009500089F0D9F3E1E0F0E0EC0FFD1FE10FF11DAC
:1009600080831F5F802F90E00E94A306843269F38A
:100970000F5FEBCF0F3F79F48DE00E949D0C8EE767
:1009800092E00E94AA0C8DE00E949D0C8CE892E0FF
:100990000E94AA0C2CCF0F5F102FE12CE1E0F0E0B9
:1009A000EC0FFD1FEE0DF11DF080812F90E00E94F5
:1009B000A306F8122AC00F5F8DE00E949D0C83E908
:1009C00092E00E94AA0C802F90E00E94A30684323D
:1009D000C9F405C06FEFC7010E948A061150E12ECD
:1009E000F12CC7010E94A3068432A1F78DE00E947A
:1009F0009D0C80EA92E00E94AA0C8DE00E949D0C62
:100A000081E008C01F5FE394C9CF1F5F0F5F0F3FF6
:100A100029F680E0813009F0ADCFE9CE8DE00E946B
:100A20009D0C8EEA92E00E94AA0C8DE00E949D0C23
:100A30008BEB92E00E94AA0C8DE00E949D0C8CEC46
:100A400092E00E94AA0C8DE00E949D0C8EED92E037
:100A50000E94AA0C8DE00E949D0C0E94B70688237C
:100A600049F18333B9F028F4813341F0823361F0E6
:100A700023C08433A9F08533C9F01EC00E945C08EE
:100A80000E94CA0080E019C00E945C080E94110107
:100A900080E013C00E945C080E94480180E00DC005
:100AA0000E945C080E94A50180E007C00E945C08CB
:100AB00081E003C080E001C080E0813009F0B8CF60
:100AC00096CEA5E1FA12BFCD83EF92E00E944908CD
:100AD000BFEF2EE984E2B15020408040E1F700C032
:100AE00000000E945C0883E0809360008DEB91E041
:100AF0000E94490810E001E035C00E942E078D33A6
:100B0000C1F49091FD02911114C088E891E00E9417
:100B100049089FEFAEE9B4E29150A040B040E1F740
:100B200000C000000E945C088DEB91E00E94490823
:100B300019C08D3321F41092FD0200E013C091E042
:100B40009093FD02E1E0F0E0EC0FFD1FE10FF11DDD
:100B500080830E9491071F5F8FE39CE90197F1F763
:100B600000C000000111C9CF0E945C0882EC91E036
:100B70000E9449089FEFAEE9B4E29150A040B04016
:100B8000E1F700C0000060E081E00E9460083BC027
:100B90000E942E078D33E1F49091FD02911118C04F
:100BA00088E891E00E9449082FEF8EE994E22150F5
:100BB00080409040E1F700C000000E945C0882EC99
:100BC00091E00E94490860E081E00E9460081BC03B
:100BD0008D3321F41092FD0201E015C08D3399F0A0
:100BE00091E09093FD02E1E0F0E0EC0FFD1FE10FDA
:100BF000F11D80830E9491071F5FAFE3BCE911974D
:100C0000F1F700C00000002319F200E010E06FC00F
:100C1000802F90E00E94A3060F5FE1E0F0E0EC0F70
:100C2000FD1FE10FF11D908189130EC00E945C0829
:100C300084E992E00E944908802F90E00E94A30678
:100C4000843209F053C056C0891709F44FC00E947E
:100C50005C088EEC91E00E944908BFEF29E688E12C
:100C6000B15020408040E1F700C0000060E081E02A
:100C70000E946008809160008230A9F0833019F0F2
:100C80008130C1F520C08DED91E00E9449089FEFB1
:100C9000A9E6B8E19150A040B040E1F700C00000E3
:100CA0000E945C0827C08DEE91E00E9449082FEF5A
:100CB00089E698E1215080409040E1F700C00000B3
:100CC0000E945C0817C00E945C0864E080E00E94FB
:100CD00060088CEF91E00E94490860E081E00E948A
:100CE000600887E092E00E944908FFCF1F5F1F3F26
:100CF00009F08ECF80916000815080936000F6CE25
:100D000061E08DE00E945C09089561E08DE00E9441
:100D10006E0A0895E199FECF07B600FCFDCF8F3F24
:100D2000910509F010F48EBB04C08EBB892F83702F
:100D30008FBB6DBB8CB384608CBB8CB382608CBB6F
:100D4000E199FECF0895E199FECF8F3F910509F01B
:100D500010F48EBB04C08EBB892F83708FBB8CB305
:100D600081608CBB8DB308950E948B0C08950E9406
:100D7000A10C089561E08CE20E945C0961E08DE2C3
:100D80000E945C0961E083E20E945C0961E082E20A
:100D90000E945C0961E081E20E945C0961E084E2FA
:100DA0000E945C09089561E08CE20E946E0A61E095
:100DB00083E20E946E0A62E082E20E946E0A089557
:100DC00062E08CE20E946E0A62E083E20E946E0A98
:100DD00062E082E20E946E0A089561E088E10E946A
:100DE0005C0961E089E10E945C0961E08AE10E949E
:100DF0005C0961E08BE10E945C0962E08EE10E9487
:100E00005C0962E08FE10E945C0962E080E20E947E
:100E10005C0962E081E20E945C0961E088E10E9475
:100E20006E0A61E089E10E946E0A61E08AE10E9437
:100E30006E0A61E08BE10E946E0A61E08EE10E9421
:100E4000E50961E08FE10E94E50961E080E20E942E
:100E5000E50961E081E20E94E5090895FF920F93A0
:100E60001F93CF93DF93CDB7DEB760970FB6F8949B
:100E7000DEBF0FBECDBF80E1E1E6F0E0DE011196FE
:100E800001900D928A95E1F708E1F12C3BC062E0F8
:100E9000802F0E946E0A1EE12EC0812F0E94F70A49
:100EA000811128C02FEF40E752E0215040405040D0
:100EB000E1F700C00000812F0E94F70A81111AC0DB
:100EC000812F0E94F70A8823D9F3802F90E048975A
:100ED000212F30E02E513109880F991F880F991F5B
:100EE00041E050E04C0F5D1F840F951FFC01E20FA5
:100EF000F31FF0801F5F123280F261E0802F0E94AA
:100F00006E0A0F5F0C3118F28F2D60960FB6F894B1
:100F1000DEBF0FBECDBFDF91CF911F910F91FF902C
:100F20000895CF93C82F61E085E10E946E0A8BB3CC
:100F30009C2F907F8F70892B8BBB61E08EE20E948B
:100F40006E0A8FE99FE00197F1F700C0000062E0B0
:100F50008EE20E946E0A8FE19EE40197F1F700C0D5
:100F6000000020E1C29FC00111249BB39F70892B18
:100F70008BBB61E08EE20E946E0A8FE99FE00197D1
:100F8000F1F700C0000062E08EE20E946E0A8FE17D
:100F90009EE40197F1F700C00000CF910895CF9330
:100FA000C82F62E085E10E946E0A8BB39C2F907F70
:100FB0008F70892B8BBB61E08EE20E946E0A8FE9F5
:100FC0009FE00197F1F700C0000062E08EE20E940E
:100FD0006E0A8FE19EE40197F1F700C0000020E166
:100FE000C29FC00111249BB39F70892B8BBB61E012
:100FF0008EE20E946E0A8FE99FE00197F1F700C030
:10100000000062E08EE20E946E0A8FE19EE401978A
:10101000F1F700C00000CF91089561E08EE00E94DA
:101020005C0961E08FE00E945C0961E080E10E9460
:101030005C0961E081E10E945C0961E085E10E9458
:101040005C0961E08EE20E945C0961E086E10E9439
:101050005C0962E086E10E946E0A2FEF83ED90E367
:10106000215080409040E1F700C0000083E30E94DF
:10107000CF0782E30E94CF0788E20E94CF078CE06F
:101080000E94CF0781E00E94CF0782E00E94CF0735
:1010900008950F931F93CF938C01C0E003C00E946B
:1010A0009107CF5FF801EC0FF11D80818111F7CF1F
:1010B000CF911F910F91089581E00E94CF0708956D
:1010C000CF93DF9300D0CDB7DEB790E8998390EC53
:1010D0009A83E1E0F0E0EC0FFD1FE80FF11D808145
:1010E000860F0E94CF070F900F90DF91CF91089548
:1010F0008230A9F028F4882341F0813059F0089516
:10110000833091F08430A9F0089561E084E20E9478
:101110005C09089561E085E20E945C09089561E040
:101120008BE20E945C09089561E084E10E945C0901
:10113000089561E08DE20E945C0908958230A9F073
:1011400028F4882341F0813059F00895833091F0DC
:101150008430A9F0089561E084E20E946E0A089547
:1011600061E085E20E946E0A089561E08BE20E94D0
:101170006E0A089561E084E10E946E0A089561E0BC
:101180008DE20E946E0A08958230A9F028F4882327
:1011900041F0813059F00895833091F08430A9F006
:1011A000089562E084E20E946E0A089562E085E29A
:1011B0000E946E0A089562E08BE20E946E0A089512
:1011C00062E084E10E946E0A089562E08DE20E946E
:1011D0006E0A089587B18F7787B987B1806487B920
:1011E00087B18F7D87B986B1887F86B986B18760E0
:1011F00086B986B1806886B908956115710501F1D7
:1012000041155105F9F09091010391111DC091E034
:1012100090930103709305036093040350930303B9
:101220004093020397B1907E97B997B1892B87B904
:1012300086B1806486B986B1886086B981E00895F8
:1012400083E0089583E0089581E008951F920F924E
:101250000FB60F9211242F933F934F935F936F9389
:101260007F938F939F93AF93BF93EF93FF93E091FF
:101270000403F091050384B195B19183808386B115
:10128000877F86B910920103E0910203F091030376
:10129000309709F00995FF91EF91BF91AF919F9120
:1012A0008F917F916F915F914F913F912F910F900F
:1012B0000FBE0F901F9018959DEC899F912D1124C2
:1012C000292F269526952695220F322F330F330F7F
:1012D000230F821B282F969596959695613019F0CD
:1012E0006230C1F108959230A1F018F4913031F0DC
:1012F00008959330C9F0943011F108953AB381E024
:1013000090E002C0880F991F2A95E2F7832B8ABBD1
:10131000089537B381E090E002C0880F991F2A95A5
:10132000E2F7832B87BB089534B381E090E002C0DD
:10133000880F991F2A95E2F7832B84BB089531B358
:1013400081E090E002C0880F991F2A95E2F7832B75
:1013500081BB08959230A9F018F4913031F00895CE
:101360009330D9F0943029F108953AB381E090E0B8
:1013700002C0880F991F2A95E2F7809583238ABBC4
:10138000089537B381E090E002C0880F991F2A9535
:10139000E2F78095832387BB089534B381E090E022
:1013A00002C0880F991F2A95E2F78095832384BB9A
:1013B000089531B381E090E002C0880F991F2A950B
:1013C000E2F78095832381BB08959DEC899F912D41
:1013D0001124292F269526952695220F322F330F7B
:1013E000330F230F821B282F969596959695613083
:1013F00019F06230C1F108959230A1F018F49130E3
:1014000031F008959330C9F0943011F108953BB351
:1014100081E090E002C0880F991F2A95E2F7832BA4
:101420008BBB089538B381E090E002C0880F991F0C
:101430002A95E2F7832B88BB089535B381E090E0CD
:1014400002C0880F991F2A95E2F7832B85BB089568
:1014500032B381E090E002C0880F991F2A95E2F72D
:10146000832B82BB08959230A9F018F4913031F0AB
:1014700008959330D9F0943029F108953BB381E079
:1014800090E002C0880F991F2A95E2F78095832388
:101490008BBB089538B381E090E002C0880F991F9C
:1014A0002A95E2F78095832388BB089535B381E0C0
:1014B00090E002C0880F991F2A95E2F78095832358
:1014C00085BB089532B381E090E002C0880F991F78
:1014D0002A95E2F78095832382BB08959DEC899F2E
:1014E000912D1124292F269526952695220F322FEE
:1014F000330F330F230F821B282F969596959695C1
:10150000613019F06230C1F108959230A1F018F401
:10151000913031F008959330C9F0943011F108956D
:101520003BB381E090E002C0880F991F2A95E2F753
:10153000832B8BBB089538B381E090E002C0880F05
:10154000991F2A95E2F7832B88BB089535B381E074
:1015500090E002C0880F991F2A95E2F7832B85BB84
:10156000089532B381E090E002C0880F991F2A9558
:10157000E2F7832B82BB08959230A9F018F49130E2
:1015800031F008959330D9F0943029F108953BB3A8
:1015900081E090E002C0880F991F2A95E2F78095BC
:1015A00083238BBB089538B381E090E002C0880F9D
:1015B000991F2A95E2F78095832388BB089535B358
:1015C00081E090E002C0880F991F2A95E2F780958C
:1015D000832385BB089532B381E090E002C0880F79
:1015E000991F2A95E2F78095832382BB08959DEC8D
:1015F000899F912D1124292F269526952695220F16
:10160000322F330F330F230F821B282F892F8695FC
:1016100086958695823091F018F4813031F029C09A
:101620008330A9F08430E1F024C089B390E002C097
:10163000959587952A95E2F78170089586B390E095
:1016400002C0959587952A95E2F78170089583B336
:1016500090E002C0959587952A95E2F781700895EC
:1016600080B390E002C0959587952A95E2F7817046
:10167000089580E0089562E08AE20E945C0962E0D9
:101680008BE20E945C0961E08AE20E94E50961E068
:101690008AE20E94E50908950E943B0B85B78E7F80
:1016A00085BF85B7826085BF85B7846085BF85B7F4
:1016B000877F85BF84B7877F84BF8BB780648BBFEC
:1016C0008BB78F778BBF8BB78F7D8BBF08956115DD
:1016D000710551F0833040F4E82FF0E0EE0FFF1F6A
:1016E000EA5FFC4F7183608308951F920F920FB6DB
:1016F0000F9211242F933F934F935F936F937F9398
:101700008F939F93AF93BF93EF93FF93E091060363
:10171000F0910703309709F00995FF91EF91BF9180
:10172000AF919F918F917F916F915F914F913F9179
:101730002F910F900FBE0F901F9018951F920F9230
:101740000FB60F9211242F933F934F935F936F9394
:101750007F938F939F93AF93BF93EF93FF93E0910A
:101760000803F0910903309709F00995FF91EF9173
:10177000BF91AF919F918F917F916F915F914F91A9
:101780003F912F910F900FBE0F901F9018951F92B1
:101790000F920FB60F9211242F933F934F935F93A5
:1017A0006F937F938F939F93AF93BF93EF93FF9329
:1017B000E0910A03F0910B03309709F00995FF912E
:1017C000EF91BF91AF919F918F917F916F915F91B9
:1017D0004F913F912F910F900FBE0F901F90189532
:1017E0007894089583B7806483BF83B7886083BF8C
:1017F00080E782BF83B7887F83BF83B7836083BF5F
:1018000083B78F7E83BF83B7806283BF08958CBF09
:1018100008951F920F920FB60F9211242F933F93AA
:101820004F935F936F937F938F939F93AF93BF93E8
:10183000EF93FF9380910C0390910D030196909389
:101840000D0380930C03813D934069F480E782BFD0
:1018500010920D0310920C03E0911003F09111030C
:10186000309709F00995FF91EF91BF91AF919F914A
:101870008F917F916F915F914F913F912F910F9039
:101880000FBE0F901F9018958FB58E7F8FBD8FB5AF
:101890008D7F8FBD8EB5877F8EBD8EB58F7E8EBDC1
:1018A0008EB581608EBD8EB58D7F8EBD8EB5846008
:1018B0008EBD89B7846089BF089590930F0380938C
:1018C0000E0308951F920F920FB60F9211242F93BB
:1018D0003F934F935F936F937F938F939F93AF93B8
:1018E000BF93EF93FF93E0910E03F0910F033097B6
:1018F00009F00995FF91EF91BF91AF919F918F9161
:101900007F916F915F914F913F912F910F900FBEFB
:101910000F901F90189581B38E7F81BB81B3826039
:1019200081BB87E689B910BC86E880BD8AB1806139
:101930008AB98AB188608AB908958CB95E9BFECF56
:10194000089504C080911603811102C05F9BFACFF5
:101950008CB108950F931F93CF93009759F412C041
:101960000E949D0CCF5F8FE39CE90197F1F700C0C7
:10197000000002C08C01C0E0F801EC0FF11D808175
:101980008111EECFCF911F910F910895EE0FFF1FA0
:101990000590F491E02D0994A29FB001B39FC0017E
:1019A000A39F700D811D1124911DB29F700D811D8B
:0A19B0001124911D0895F894FFCF53
:1019BA0003373839413435362A3132332D63303DD5
:1019CA002B57656C636F6D6520746F20796F757224
:1019DA000057656C636F6D6520746F20796F75723F
:1019EA0020686F6D65207369720020507265737389
:1019FA002027412720546F002050726F6365656469
:101A0A000020312D446F6F72204F70656E002032B6
:101A1A002D446F6F7220436C6F7365002020444F12
:101A2A004E450020312D4C6967687473204F4E0073
:101A3A0020322D4C6967687473204F464600204552
:101A4A006E74657220696E74656E73697479206646
:101A5A00726F6D20303A39004C4F4144494E472E3F
:101A6A002E2E2E2E002043757272656E74207465B8
:101A7A006D7065726174757265206973203A200011
:101A8A00202020312D414320456E61626C65002083
:101A9A00322D41432044697361626C6500205468A9
:101AAA00652046697273742074696D6520796F7553
:101ABA00206E65656420746F2063726561746520A9
:101ACA00616E2061646D696E0020456E74657220D6
:101ADA004E616D653A2000204572726F7220706CFB
:101AEA00656173652074727920616761696E004E61
:101AFA006F7720456E7465722050617373776F72C9
:101B0A00643A2000204C6F6720496E002049443A0D
:101B1A00002050415353574F52443A2000205772E5
:101B2A006F6E672049442F5041535300203220746E
:101B3A007269616C73206C656674200020312074B0
:101B4A007269616C206C656674200020454D4552AF
:101B5A0047454E4359002043414C4C494E47203992
:101B6A00313100205375636365737366756C204C5D
:101B7A004F47494E0020312D414444205553455288
:101B8A000020322D52454D4F56452055534552009F
:101B9A0020332D4D454E55002049443A200020500F
:101BAA00415353574F52443A00205553455220410E
:101BBA00444445440020456E7465722049442650C9
:101BCA004153530020436F6D62696E65640020556E
:101BDA0053455220444F45534E27540020455849F7
:101BEA0053540020434845434B494E472E2E2E005E
:101BFA0020555345522044454C45544544002057EE
:101C0A00656C636F6D65207369720020312D446FB6
:101C1A006F722020322D4C696768740020332D447E
:101C2A00696D5F4C6967687420342D414300203523
:101C3A002D4261636B20546F204D61696E204D65A2
:0C1C4A006E750057656C636F6D650000DF
:00000001FF
