S0110000536D617274486F6D652E7372656383
S11300000C9434000C947D0B0C94A60B0C94CF0B25
S11300100C9451000C9451000C9451000C94510018
S11300200C9451000C946A0C0C9451000C94110C17
S11300300C9451000C9451000C9451000C945100F8
S11300400C942E090C9451000C9451000C94510002
S11300500C9451006001640168016C017001740129
S113006078017C018001840111241FBECFE5D8E012
S1130070DEBFCDBF12E0A0E6B0E0EAECF9E102C0D9
S113008005900D92AC3FB107D9F723E0ACEFB2E095
S113009001C01D92A731B207E1F70E9410020C942F
S11300A0E30C0C9400002091FF0230910003A8E8B7
S11300B0B3E10E94D40C9B01AC01012E1AE05695C9
S11300C04795379527951A95D1F7102D309313033B
S11300D020931203ADECBCEC0E94D40C969587954A
S11300E0969587959695879580931403089581E056
S11300F08093160304C00E9436078093FC0280910B
S1130100FC028823C1F3089560E080E00E9468083F
S113011081E790E00E94510860E081E00E94680855
S113012081E990E00E9451082FEF89E698E121507F
S113013080409040E1F700C000000E9464082FEF67
S113014089E698E1215080409040E1F700C000002A
S11301508BE990E00E94510860E081E00E94680809
S113016089EA90E00E94510881E890E00E94B20C74
S11301708DE00E94A50C8AE990E00E94B20C8DE00B
S11301800E94A50C88EA90E00E94B20C8DE00E94C7
S1130190A50C089561E08FE20E9464098DE00E943D
S11301A0A50C81EB90E00E94B20C8DE00E94A50C9E
S11301B08EEB90E00E94B20C0E94BF068133B1F432
S11301C061E08FE20E94760A8FE39FE10197F1F7E5
S11301D000C0000062E08FE20E94760A8DE00E9477
S11301E0A50C8EEC90E00E94B20C08958233C1F409
S11301F061E08FE20E94760A8FE697E10197F1F7BA
S113020000C0000062E08FE20E94760A8DE00E9446
S1130210A50C8CEC90E00E94B20C8DE00E94A50C21
S113022008958DE00E94A50C83ED90E00E94B20C2D
S11302308DE00E94A50C80EE90E00E94B20C8DE04F
S11302400E94A50C0E94BF06813381F480E00E94C5
S1130250A60881E00E94A60882E00E94A60883E026
S11302600E94A60884E00E94A6080895823379F4C7
S113027080E00E94CC0881E00E94CC0882E00E94C9
S1130280CC0883E00E94CC0884E00E94CC08089546
S11302908DE00E94A50C8EEE90E00E94B20C8DE0E1
S11302A00E94A50C0E94BF06882389F190E0FC01FE
S11302B0F097EA30F10558F5E65DFF4F0C94CE0C4B
S11302C082E00E940F0C089589E10E940F0C0895AA
S11302D082E30E940F0C08958BE40E940F0C089592
S11302E084E60E940F0C08958DE70E940F0C089578
S11302F086E90E940F0C08958FEA0E940F0C08955E
S113030088EC0E940F0C08958AEF0E940F0C089548
S113031043E550E06FEF72E080E00E940509089524
S11303200E94880180911503813061F48091140347
S11303308C3118F00E94DB060895853128F40E9460
S1130340E80608950E94E8060895CF93DF9388E0B5
S113035091E00E94B20C809114038823E1F32FEF03
S113036080E792E0215080409040E1F700C0000017
S1130370809114039DEC899F912D11249695969557
S11303809695D0E3D90F990F292F220F220F920FA0
S1130390891BC0E3C80F8DE00E94A50C2FEF80E7F6
S11303A092E0215080409040E1F700C0000085E1D8
S11303B091E00E94B20C2FEF80E792E02150804040
S11303C09040E1F700C000008D2F0E94A50C2FEF94
S11303D080E792E0215080409040E1F700C00000A7
S11303E08C2F0E94A50C8DE00E94A50C80E391E067
S11303F00E94B20C8DE00E94A50C8FE391E00E9454
S1130400B20C0E94BF06813321F481E0809315036E
S113041004C0823311F410921503DF91CF91089533
S1130420CF93DF93CDB7DEB7A8970FB6F894DEBFAE
S11304300FBECDBF0E9415080E9488060E94BC060C
S11304400E94C2060E94F2080E94C2060E944C0C3E
S113045080E991E00E94650C0E94FA0B82E00E9400
S11304600F0C0E94540B61E087E10E9464090E9412
S1130470F80B80E00E94800881E00E94800882E0FE
S11304800E94800883E00E94800884E00E94800823
S11304900E94F50667E770E080E00E946F0BFE01A2
S11304A0319688E2DF011D928A95E9F70E94840063
S11304B080E004C00E94BF06811104C0909116031D
S11304C09923C1F3813459F0813671F09091FC0283
S11304D09134A1F70F2EF5E1FF2EF02D09C00F2E58
S11304E0F4E1FF2EF02D04C00F2EF4E1FF2EF02DC9
S11304F080E090E00E94AB06082F8F3F09F0A0C077
S11305008DE491E00E94B20CBFEF2EE984E2B15079
S113051020408040E1F700C000008DE00E94A50C5F
S113052089E791E00E94B20C8DE00E94A50C10E0D6
S11305302CC00E94BF068D30E1F49091FD02911110
S113054018C087E891E00E94B20C9FEFAEE9B4E2D4
S11305509150A040B040E1F700C000008DE00E943F
S1130560A50C89E791E00E94B20C8DE00E94A50CD5
S11305700CC08D3071F049F091E09093FD02682F2A
S1130580812F90E00E9492061F5F8091FE028823D3
S113059081F21092FD028DE00E94A50C2FEF8EE9EE
S11305A094E2215080409040E1F700C000008FE9C0
S11305B091E00E94B20C8DE00E94A50C3CC00E9408
S11305C0BF068D30E1F49091FD02911118C088E8C6
S11305D091E00E94B20CAFEFBEE924E2A150B0401A
S11305E02040E1F700C000008DE00E94A50C89EADC
S11305F091E00E94B20C8DE00E94A50C1CC08D30CD
S113060051F091E09093FD02682F812F90E00E94B9
S113061092061F5F10C08D3071F464E2812F90E068
S11306200E9492061F5F612F8FEF90E00E94920656
S113063081E08093FE028091FE02882309F4BFCFFB
S113064081E08093FD0284E1F8123BC284EB91E0E7
S11306500E94B20C8DE00E94A50CBCC08DEB91E011
S11306600E94B20C10E0FF24F39427C00E94BF063E
S11306708D3081F49091FD0291110CC087E891E0D6
S11306800E94B20C8DE00E94A50C8CEB91E00E94BC
S1130690B20C13C08D3021F41092FD02F12C0DC068
S11306A08D3059F091E09093FD02E1E0F0E0EC0F21
S11306B0FD1FE10FF11D80831F5F91E0F916B1F278
S11306C08DE00E94A50C81EC91E00E94B20C8DE0BB
S11306D00E94A50C2BC00E94BF068D3099F4909106
S11306E0FD0291110FC087E891E00E94B20C8DE0E9
S11306F00E94A50C81EC91E00E94B20C8DE00E9456
S1130700A50C14C08D3029F41092FD02FF24F3943B
S11307100DC08D3059F091E09093FD02E1E0F0E0DE
S1130720EC0FFD1FE10FF11D80831F5FFF2099F285
S1130730F12C10E047C08F2D90E00E94AB06082FEB
S1130740F394843209F441C0E1E0F0E0EC0FFD1FC2
S1130750E10FF11D80810817A1F18DE00E94A50C25
S11307608DEC91E00E94B20C8DE00E94A50C80916A
S11307706000823069F0833019F0813031F510C0A7
S11307808CED91E00E94B20C8DE00E94A50C1DC07E
S11307908CEE91E00E94B20C8DE00E94A50C15C075
S11307A08DE00E94A50C8BEF91E00E94B20C8DE0CD
S11307B00E94A50C86E092E00E94B20C0E948D0675
S11307C0FDCF1F5F183208F4B6CF809160008150CE
S11307D080936000043209F041CF8DE00E94A50CA3
S11307E083E192E00E94B20C8DE00E94A50C85E2A8
S11307F092E00E94B20C8DE00E94A50C81E392E08D
S11308000E94B20C8DE00E94A50C80E492E00E944C
S1130810B20C8FEF90E00E94AB06182F0E94BF0627
S1130820823309F482C0833309F4F8C08133F9F6C2
S11308308DE00E94A50C88E492E00E94B20C0E9414
S1130840BF068D3099F49091FD0291110FC087E895
S113085091E00E94B20C8DE00E94A50C88E492E025
S11308600E94B20C8DE00E94A50CE9CF8D30A1F45A
S11308701092FD02612F8FEF90E00E9492068DE0AE
S11308800E94A50C8EE492E00E94B20C8FEF90E0DF
S11308900E94AB06182F0CC08D3089F291E0909322
S11308A0FD02682F812F90E00E9492061F5FC7CF40
S11308B00E94BF068D3099F49091FD0291110FC0F2
S11308C087E891E00E94B20C8DE00E94A50C8EE4B2
S11308D092E00E94B20C8DE00E94A50CE9CF8D300D
S11308E051F091E09093FD02682F812F90E00E94D7
S11308F092061F5FDDCF8D30D9F664E2812F90E040
S11309000E9492061092FD0261E0610F8FEF90E069
S11309100E9492068DE00E94A50C89E592E00E9457
S1130920B20C8DE00E94A50C62CF8DE00E94A50C54
S113093085E692E00E94B20C84E792E00E94B20C39
S11309408DE00E94A50C00E010E00E94BF068D30EF
S113095089F0D9F3E1E0F0E0EC0FFD1FE10FF11DA8
S113096080831F5F802F90E00E94AB06843269F37E
S11309700F5FEBCF0F3F79F48DE00E94A50C8EE75B
S113098092E00E94B20C8DE00E94A50C8CE892E0EB
S11309900E94B20C2CCF0F5F102FE12CE1E0F0E0AD
S11309A0EC0FFD1FEE0DF11DF080812F90E00E94F1
S11309B0AB06F8122AC00F5F8DE00E94A50C83E9F4
S11309C092E00E94B20C802F90E00E94AB06843229
S11309D0C9F405C06FEFC7010E9492061150E12EC1
S11309E0F12CC7010E94AB068432A1F78DE00E946E
S11309F0A50C80EA92E00E94B20C8DE00E94A50C46
S1130A0081E008C01F5FE394C9CF1F5F0F5F0F3FF2
S1130A1029F680E0813009F0ADCFE9CE8DE00E9467
S1130A20A50C8EEA92E00E94B20C8DE00E94A50C07
S1130A308BEB92E00E94B20C8DE00E94A50C8CEC32
S1130A4092E00E94B20C8DE00E94A50C8EED92E023
S1130A500E94B20C8DE00E94A50C0E94BF06882360
S1130A6049F18333B9F028F4813341F0823361F0E2
S1130A7023C08433A9F08533C9F01EC00E946408E2
S1130A800E94CA0080E019C00E9464080E941101FB
S1130A9080E013C00E9464080E94480180E00DC0F9
S1130AA00E9464080E94A50180E007C00E946408B7
S1130AB081E003C080E001C080E0813009F0B8CF5C
S1130AC096CEA5E1FA12BFCD83EF92E00E945108C1
S1130AD0BFEF2EE984E2B15020408040E1F700C02E
S1130AE000000E94640883E0809360008DEB91E035
S1130AF00E94510860E081E00E94680810E001E073
S1130B0039C00E9436078D33E1F49091FD029111B2
S1130B1018C088E891E00E9451089FEFAEE9B4E262
S1130B209150A040B040E1F700C000000E9464086A
S1130B308DEB91E00E94510860E081E00E9468081A
S1130B4019C08D3321F41092FD0200E013C091E02E
S1130B509093FD02E1E0F0E0EC0FFD1FE10FF11DC9
S1130B6080830E9499071F5F8FE39CE90197F1F747
S1130B7000C000000111C5CF0E94640882EC91E01E
S1130B800E9451089FEFAEE9B4E29150A040B040FA
S1130B90E1F700C0000060E081E00E9468083BC00B
S1130BA00E9436078D33E1F49091FD02911118C033
S1130BB088E891E00E9451082FEF8EE994E22150D9
S1130BC080409040E1F700C000000E94640882EC7D
S1130BD091E00E94510860E081E00E9468081BC017
S1130BE08D3321F41092FD0201E015C08D3399F08C
S1130BF091E09093FD02E1E0F0E0EC0FFD1FE10FC6
S1130C00F11D80830E9499071F5FAFE3BCE9119730
S1130C10F1F700C00000002319F200E010E06FC0FB
S1130C20802F90E00E94AB060F5FE1E0F0E0EC0F54
S1130C30FD1FE10FF11D908189130EC00E9464080D
S1130C4084E992E00E945108802F90E00E94AB0654
S1130C50843209F053C056C0891709F44FC00E946A
S1130C6064088EEC91E00E945108BFEF29E688E108
S1130C70B15020408040E1F700C0000060E081E016
S1130C800E946808809160008230A9F0833019F0D6
S1130C908130C1F520C08DED91E00E9451089FEF95
S1130CA0A9E6B8E19150A040B040E1F700C00000CF
S1130CB00E94640827C08DEE91E00E9451082FEF36
S1130CC089E698E1215080409040E1F700C000009F
S1130CD00E94640817C00E94640864E080E00E94D7
S1130CE068088CEF91E00E94510860E081E00E9466
S1130CF0680887E092E00E945108FFCF1F5F1F3F02
S1130D0009F08ECF80916000815080936000EECE18
S1130D1061E08DE00E946409089561E08DE00E9425
S1130D20760A0895E199FECF07B600FCFDCF8F3F08
S1130D30910509F010F48EBB04C08EBB892F83701B
S1130D408FBB6DBB8CB384608CBB8CB382608CBB5B
S1130D50E199FECF0895E199FECF8F3F910509F007
S1130D6010F48EBB04C08EBB892F83708FBB8CB3F1
S1130D7081608CBB8DB308950E94930C08950E94EA
S1130D80A90C089561E08CE20E94640961E08DE29F
S1130D900E94640961E083E20E94640961E082E2E6
S1130DA00E94640961E081E20E94640961E084E2D6
S1130DB00E946409089561E08CE20E94760A61E071
S1130DC083E20E94760A62E082E20E94760A089533
S1130DD062E08CE20E94760A62E083E20E94760A74
S1130DE062E082E20E94760A089561E088E10E944E
S1130DF0640961E089E10E94640961E08AE10E947A
S1130E00640961E08BE10E94640962E08EE10E9462
S1130E10640962E08FE10E94640962E080E20E945A
S1130E20640962E081E20E94640961E088E10E9451
S1130E30760A61E089E10E94760A61E08AE10E9413
S1130E40760A61E08BE10E94760A61E08EE10E94FD
S1130E50ED0961E08FE10E94ED0961E080E20E940A
S1130E60ED0961E081E20E94ED090895FF920F937C
S1130E701F93CF93DF93CDB7DEB760970FB6F89487
S1130E80DEBF0FBECDBF80E1E1E6F0E0DE011196EA
S1130E9001900D928A95E1F708E1F12C3BC062E0E4
S1130EA0802F0E94760A1EE12EC0812F0E94FF0A25
S1130EB0811128C02FEF40E752E0215040405040BC
S1130EC0E1F700C00000812F0E94FF0A81111AC0BF
S1130ED0812F0E94FF0A8823D9F3802F90E048973E
S1130EE0212F30E02E513109880F991F880F991F47
S1130EF041E050E04C0F5D1F840F951FFC01E20F91
S1130F00F31FF0801F5F123280F261E0802F0E9495
S1130F10760A0F5F0C3118F28F2D60960FB6F89495
S1130F20DEBF0FBECDBFDF91CF911F910F91FF9018
S1130F300895CF93C82F61E085E10E94760A8BB3B0
S1130F409C2F907F8F70892B8BBB61E08EE20E9477
S1130F50760A8FE99FE00197F1F700C0000062E094
S1130F608EE20E94760A8FE19EE40197F1F700C0B9
S1130F70000020E1C29FC00111249BB39F70892B04
S1130F808BBB61E08EE20E94760A8FE99FE00197B5
S1130F90F1F700C0000062E08EE20E94760A8FE161
S1130FA09EE40197F1F700C00000CF910895CF931C
S1130FB0C82F62E085E10E94760A8BB39C2F907F54
S1130FC08F70892B8BBB61E08EE20E94760A8FE9D9
S1130FD09FE00197F1F700C0000062E08EE20E94FA
S1130FE0760A8FE19EE40197F1F700C0000020E14A
S1130FF0C29FC00111249BB39F70892B8BBB61E0FE
S11310008EE20E94760A8FE99FE00197F1F700C013
S1131010000062E08EE20E94760A8FE19EE401976E
S1131020F1F700C00000CF91089561E08EE00E94C6
S1131030640961E08FE00E94640961E080E10E943C
S1131040640961E081E10E94640961E085E10E9434
S1131050640961E08EE20E94640961E086E10E9415
S1131060640962E086E10E94760A2FEF83ED90E343
S1131070215080409040E1F700C0000083E30E94CB
S1131080D70782E30E94D70788E20E94D7078CE043
S11310900E94D70781E00E94D70782E00E94D70709
S11310A008950F931F93CF938C01C0E003C00E9457
S11310B09907CF5FF801EC0FF11D80818111F7CF03
S11310C0CF911F910F91089581E00E94D707089551
S11310D0CF93DF9300D0CDB7DEB790E8998390EC3F
S11310E09A83E1E0F0E0EC0FFD1FE80FF11D808131
S11310F0860F0E94D7070F900F90DF91CF9108952C
S11311008230A9F028F4882341F0813059F0089501
S1131110833091F08430A9F0089561E084E20E9464
S11311206409089561E085E20E946409089561E01C
S11311308BE20E946409089561E084E10E946409DD
S1131140089561E08DE20E94640908958230A9F057
S113115028F4882341F0813059F00895833091F0C8
S11311608430A9F0089561E084E20E94760A08952B
S113117061E085E20E94760A089561E08BE20E94B4
S1131180760A089561E084E10E94760A089561E098
S11311908DE20E94760A08958230A9F028F488230B
S11311A041F0813059F00895833091F08430A9F0F2
S11311B0089562E084E20E94760A089562E085E27E
S11311C00E94760A089562E08BE20E94760A0895EE
S11311D062E084E10E94760A089562E08DE20E9452
S11311E0760A089587B18F7787B987B1806487B904
S11311F087B18F7D87B986B1887F86B986B18760CC
S113120086B986B1806886B908956115710501F1C2
S113121041155105F9F09091010391111DC091E020
S113122090930103709305036093040350930303A5
S11312304093020397B1907E97B997B1892B87B9F0
S113124086B1806486B986B1886086B981E00895E4
S113125083E0089583E0089581E008951F920F923A
S11312600FB60F9211242F933F934F935F936F9375
S11312707F938F939F93AF93BF93EF93FF93E091EB
S11312800403F091050384B195B19183808386B101
S1131290877F86B910920103E0910203F091030362
S11312A0309709F00995FF91EF91BF91AF919F910C
S11312B08F917F916F915F914F913F912F910F90FB
S11312C00FBE0F901F9018959DEC899F912D1124AE
S11312D0292F269526952695220F322F330F330F6B
S11312E0230F821B282F969596959695613019F0B9
S11312F06230C1F108959230A1F018F4913031F0C8
S113130008959330C9F0943011F108953AB381E00F
S113131090E002C0880F991F2A95E2F7832B8ABBBD
S1131320089537B381E090E002C0880F991F2A9591
S1131330E2F7832B87BB089534B381E090E002C0C9
S1131340880F991F2A95E2F7832B84BB089531B344
S113135081E090E002C0880F991F2A95E2F7832B61
S113136081BB08959230A9F018F4913031F00895BA
S11313709330D9F0943029F108953AB381E090E0A4
S113138002C0880F991F2A95E2F7809583238ABBB0
S1131390089537B381E090E002C0880F991F2A9521
S11313A0E2F78095832387BB089534B381E090E00E
S11313B002C0880F991F2A95E2F78095832384BB86
S11313C0089531B381E090E002C0880F991F2A95F7
S11313D0E2F78095832381BB08959DEC899F912D2D
S11313E01124292F269526952695220F322F330F67
S11313F0330F230F821B282F96959695969561306F
S113140019F06230C1F108959230A1F018F49130CE
S113141031F008959330C9F0943011F108953BB33D
S113142081E090E002C0880F991F2A95E2F7832B90
S11314308BBB089538B381E090E002C0880F991FF8
S11314402A95E2F7832B88BB089535B381E090E0B9
S113145002C0880F991F2A95E2F7832B85BB089554
S113146032B381E090E002C0880F991F2A95E2F719
S1131470832B82BB08959230A9F018F4913031F097
S113148008959330D9F0943029F108953BB381E065
S113149090E002C0880F991F2A95E2F78095832374
S11314A08BBB089538B381E090E002C0880F991F88
S11314B02A95E2F78095832388BB089535B381E0AC
S11314C090E002C0880F991F2A95E2F78095832344
S11314D085BB089532B381E090E002C0880F991F64
S11314E02A95E2F78095832382BB08959DEC899F1A
S11314F0912D1124292F269526952695220F322FDA
S1131500330F330F230F821B282F969596959695AC
S1131510613019F06230C1F108959230A1F018F4ED
S1131520913031F008959330C9F0943011F1089559
S11315303BB381E090E002C0880F991F2A95E2F73F
S1131540832B8BBB089538B381E090E002C0880FF1
S1131550991F2A95E2F7832B88BB089535B381E060
S113156090E002C0880F991F2A95E2F7832B85BB70
S1131570089532B381E090E002C0880F991F2A9544
S1131580E2F7832B82BB08959230A9F018F49130CE
S113159031F008959330D9F0943029F108953BB394
S11315A081E090E002C0880F991F2A95E2F78095A8
S11315B083238BBB089538B381E090E002C0880F89
S11315C0991F2A95E2F78095832388BB089535B344
S11315D081E090E002C0880F991F2A95E2F7809578
S11315E0832385BB089532B381E090E002C0880F65
S11315F0991F2A95E2F78095832382BB08959DEC79
S1131600899F912D1124292F269526952695220F01
S1131610322F330F330F230F821B282F892F8695E8
S113162086958695823091F018F4813031F029C086
S11316308330A9F08430E1F024C089B390E002C083
S1131640959587952A95E2F78170089586B390E081
S113165002C0959587952A95E2F78170089583B322
S113166090E002C0959587952A95E2F781700895D8
S113167080B390E002C0959587952A95E2F7817032
S1131680089580E0089562E08AE20E94640962E0BD
S11316908BE20E94640961E08AE20E94ED0961E044
S11316A08AE20E94ED0908950E94430B85B78E7F5C
S11316B085BF85B7826085BF85B7846085BF85B7E0
S11316C0877F85BF84B7877F84BF8BB780648BBFD8
S11316D08BB78F778BBF8BB78F7D8BBF08956115C9
S11316E0710551F0833040F4E82FF0E0EE0FFF1F56
S11316F0EA5FFC4F7183608308951F920F920FB6C7
S11317000F9211242F933F934F935F936F937F9383
S11317108F939F93AF93BF93EF93FF93E09106034F
S1131720F0910703309709F00995FF91EF91BF916C
S1131730AF919F918F917F916F915F914F913F9165
S11317402F910F900FBE0F901F9018951F920F921C
S11317500FB60F9211242F933F934F935F936F9380
S11317607F938F939F93AF93BF93EF93FF93E091F6
S11317700803F0910903309709F00995FF91EF915F
S1131780BF91AF919F918F917F916F915F914F9195
S11317903F912F910F900FBE0F901F9018951F929D
S11317A00F920FB60F9211242F933F934F935F9391
S11317B06F937F938F939F93AF93BF93EF93FF9315
S11317C0E0910A03F0910B03309709F00995FF911A
S11317D0EF91BF91AF919F918F917F916F915F91A5
S11317E04F913F912F910F900FBE0F901F9018951E
S11317F07894089583B7806483BF83B7886083BF78
S113180080E782BF83B7887F83BF83B7836083BF4A
S113181083B78F7E83BF83B7806283BF08958CBFF5
S113182008951F920F920FB60F9211242F933F9396
S11318304F935F936F937F938F939F93AF93BF93D4
S1131840EF93FF9380910C0390910D030196909375
S11318500D0380930C03813D934069F480E782BFBC
S113186010920D0310920C03E0911003F0911103F8
S1131870309709F00995FF91EF91BF91AF919F9136
S11318808F917F916F915F914F913F912F910F9025
S11318900FBE0F901F9018958FB58E7F8FBD8FB59B
S11318A08D7F8FBD8EB5877F8EBD8EB58F7E8EBDAD
S11318B08EB581608EBD8EB58D7F8EBD8EB58460F4
S11318C08EBD89B7846089BF089590930F03809378
S11318D00E0308951F920F920FB60F9211242F93A7
S11318E03F934F935F936F937F938F939F93AF93A4
S11318F0BF93EF93FF93E0910E03F0910F033097A2
S113190009F00995FF91EF91BF91AF919F918F914C
S11319107F916F915F914F913F912F910F900FBEE7
S11319200F901F90189581B38E7F81BB81B3826025
S113193081BB87E689B910BC86E880BD8AB1806125
S11319408AB98AB188608AB908958CB95E9BFECF42
S1131950089504C080911603811102C05F9BFACFE1
S11319608CB108950F931F93CF93009759F412C02D
S11319700E94A50CCF5F8FE39CE90197F1F700C0AB
S1131980000002C08C01C0E0F801EC0FF11D808161
S11319908111EECFCF911F910F910895EE0FFF1F8C
S11319A00590F491E02D0994A29FB001B39FC0016A
S11319B0A39F700D811D1124911DB29F700D811D77
S10D19C01124911D0895F894FFCF3F
S11319CA033132334134353642373839432A303DCC
S11319DA4457656C636F6D6520746F20796F7572F7
S11319EA0057656C636F6D6520746F20796F75722B
S11319FA20686F6D65207369720020507265737375
S1131A0A2027412720546F002050726F6365656454
S1131A1A0020312D446F6F72204F70656E002032A2
S1131A2A2D446F6F7220436C6F7365002020444FFE
S1131A3A4E450020312D4C6967687473204F4E005F
S1131A4A20322D4C6967687473204F46460020453E
S1131A5A6E74657220696E74656E73697479206632
S1131A6A726F6D20303A39004C4F4144494E472E2B
S1131A7A2E2E2E2E002043757272656E74207465A4
S1131A8A6D7065726174757265206973203A2000FD
S1131A9A202020312D414320456E61626C6500206F
S1131AAA322D41432044697361626C650020546895
S1131ABA652046697273742074696D6520796F753F
S1131ACA206E65656420746F206372656174652095
S1131ADA616E2061646D696E0020456E74657220C2
S1131AEA4E616D653A2000204572726F7220706CE7
S1131AFA656173652074727920616761696E004E4D
S1131B0A6F7720456E7465722050617373776F72B4
S1131B1A643A2000204C6F6720496E002049443AF9
S1131B2A002050415353574F52443A2000205772D1
S1131B3A6F6E672049442F5041535300203220745A
S1131B4A7269616C73206C6566742000203120749C
S1131B5A7269616C206C656674200020454D45529B
S1131B6A47454E4359002043414C4C494E4720397E
S1131B7A313100205375636365737366756C204C49
S1131B8A4F47494E0020312D414444205553455274
S1131B9A0020322D52454D4F56452055534552008B
S1131BAA20332D4D454E55002049443A20002050FB
S1131BBA415353574F52443A0020555345522041FA
S1131BCA444445440020456E7465722049442650B5
S1131BDA4153530020436F6D62696E65640020555A
S1131BEA53455220444F45534E27540020455849E3
S1131BFA53540020434845434B494E472E2E2E004A
S1131C0A20555345522044454C45544544002057D9
S1131C1A656C636F6D65207369720020312D446FA2
S1131C2A6F722020322D4C696768740020332D446A
S1131C3A696D5F4C6967687420342D41430020350F
S1131C4A2D4261636B20546F204D61696E204D658E
S10F1C5A6E750057656C636F6D650000CB
S9030000FC
