:100000000C9434000C94D80B0C94010C0C942A0C16
:100010000C9451000C9451000C9451000C9451001C
:100020000C9451000C94C50C0C9451000C946C0C65
:100030000C9451000C9451000C9451000C945100FC
:100040000C9489090C9451000C9451000C945100AB
:100050000C9451006001640168016C01700174012D
:1000600078017C018001840111241FBECFE5D8E016
:10007000DEBFCDBF12E0A0E6B0E0E2E0FBE102C0EF
:1000800005900D92A43FB107D9F723E0A4EFB2E0A9
:1000900001C01D92AF30B207E1F70E9410020C942C
:1000A0007F0D0C9400002091F7023091F802A8E82F
:1000B000B3E10E944E0D9B01AC01012E1AE0569552
:1000C0004795379527951A95D1F7102D30930B0347
:1000D00020930A03ADECBCEC0E944E0D96958795DB
:1000E000969587959695879580930C03089581E062
:1000F00080930E0304C00E9425078093F402809130
:10010000F4028823C1F3089560E080E00E94C308F0
:1001100081E790E00E94400860E081E00E94C3080F
:1001200081E990E00E9440082FEF89E698E1215094
:1001300080409040E1F700C000000E94BF082FEF10
:1001400089E698E1215080409040E1F700C000002E
:100150008BE990E00E94400860E081E00E94C308C3
:1001600089EA90E00E94400881E890E00E940D0D2D
:100170008DE00E94000D8AE990E00E940D0D8DE057
:100180000E94000D88EA90E00E940D0D8DE00E9413
:10019000000D089561E08FE20E94BF098DE00E948A
:1001A000000D81EB90E00E940D0D8DE00E94000D8E
:1001B0008EEB90E00E940D0D0E94AE068133B1F4EB
:1001C00061E08FE20E94D10A8FE39FE10197F1F78E
:1001D00000C0000062E08FE20E94D10A8DE00E9420
:1001E000000D8EEC90E00E940D0D08958233C1F455
:1001F00061E08FE20E94D10A8FE697E10197F1F763
:1002000000C0000062E08FE20E94D10A8DE00E94EF
:10021000000D8CEC90E00E940D0D8DE00E94000D11
:1002200008958DE00E94000D83ED90E00E940D0D79
:100230008DE00E94000D80EE90E00E940D0D8DE09B
:100240000E94000D0E94AE06813381F480E00E947E
:10025000010981E00E94010982E00E94010983E016
:100260000E94010984E00E9401090895823379F413
:1002700080E00E94270981E00E94270982E00E9415
:10028000270983E00E94270984E00E942709089536
:100290008DE00E94000D8EEE90E00E940D0D8DE02D
:1002A0000E94000D0E94AE06882389F190E0FC01B7
:1002B000F097EA30F10558F5E65DFF4F0C94480DD4
:1002C00082E00E946A0C089589E10E946A0C0895F8
:1002D00082E30E946A0C08958BE40E946A0C0895E0
:1002E00084E60E946A0C08958DE70E946A0C0895C6
:1002F00086E90E946A0C08958FEA0E946A0C0895AC
:1003000088EC0E946A0C08958AEF0E946A0C089596
:1003100043E550E067EF72E080E00E9460090895D5
:100320000E94880180910D03813061F480910C035B
:100330008C3118F00E94CA060895853128F40E9475
:10034000D70608950E94D7060895CF93DF9388E0DB
:1003500091E00E940D0D80910C038823E1F32FEFB3
:1003600080E792E0215080409040E1F700C000001B
:1003700080910C039DEC899F912D11249695969563
:100380009695D0E3D90F990F292F220F220F920FA4
:10039000891BC0E3C80F8DE00E94000D2FEF80E79E
:1003A00092E0215080409040E1F700C0000085E1DC
:1003B00091E00E940D0D2FEF80E792E021508040E8
:1003C0009040E1F700C000008D2F0E94000D2FEF3C
:1003D00080E792E0215080409040E1F700C00000AB
:1003E0008C2F0E94000D8DE00E94000D80E391E0B3
:1003F0000E940D0D8DE00E94000D8FE391E00E94A0
:100400000D0D0E94AE06813321F481E080930D032F
:1004100004C0823311F410920D03DF91CF9108953F
:10042000CF93DF93CDB7DEB7A8970FB6F894DEBFB2
:100430000FBECDBF0E9404080E9477060E94AB0643
:100440000E94B1060E944D090E94B1060E94A70CAD
:1004500080E991E00E94C00C0E94550C82E00E944D
:100460006A0C0E94AF0B61E087E10E94BF090E9405
:10047000530C80E00E94DB0881E00E94DB0882E0F0
:100480000E94DB0883E00E94DB0884E00E94DB0816
:100490000E94E40667E770E080E00E94CA0BFE015C
:1004A000319688E2DF011D928A95E9F70E94840067
:1004B00080E004C00E94AE06811104C090910E033A
:1004C0009923C1F3813459F0813671F09091F4028F
:1004D0009134A1F70F2EF5E1FF2EF02D09C00F2E5C
:1004E000F4E1FF2EF02D04C00F2EF4E1FF2EF02DCD
:1004F00080E090E00E949A06082F8F3F09F0A0C08C
:100500008DE491E00E940D0DBFEF2EE984E2B15021
:1005100020408040E1F700C000008DE00E94000D07
:1005200089E791E00E940D0D8DE00E94000D10E022
:100530002CC00E94AE068D30E1F49091F50291112D
:1005400018C087E891E00E940D0D9FEFAEE9B4E27C
:100550009150A040B040E1F700C000008DE00E9443
:10056000000D89E791E00E940D0D8DE00E94000DC5
:100570000CC08D3071F049F091E09093F502682F36
:10058000812F90E00E9481061F5F8091F6028823F0
:1005900081F21092F5028DE00E94000D2FEF8EE99E
:1005A00094E2215080409040E1F700C000008FE9C4
:1005B00091E00E940D0D8DE00E94000D3CC00E9454
:1005C000AE068D30E1F49091F502911118C088E8E3
:1005D00091E00E940D0DAFEFBEE924E2A150B040C2
:1005E0002040E1F700C000008DE00E94000D89EA84
:1005F00091E00E940D0D8DE00E94000D1CC08D3019
:1006000051F091E09093F502682F812F90E00E94C5
:1006100081061F5F10C08D3071F464E2812F90E07D
:100620000E9481061F5F612F8FEF90E00E9481067C
:1006300081E08093F6028091F602882309F4BFCF0F
:1006400081E08093F50284E1F8123BC284EB91E0F3
:100650000E940D0D8DE00E94000DBCC08DEB91E05D
:100660000E940D0D10E0FF24F39427C00E94AE06F7
:100670008D3081F49091F50291110CC087E891E0E2
:100680000E940D0D8DE00E94000D8CEB91E00E9408
:100690000D0D13C08D3021F41092F502F12C0DC018
:1006A0008D3059F091E09093F502E1E0F0E0EC0F2D
:1006B000FD1FE10FF11D80831F5F91E0F916B1F27C
:1006C0008DE00E94000D81EC91E00E940D0D8DE007
:1006D0000E94000D2BC00E94AE068D3099F49091BF
:1006E000F50291110FC087E891E00E940D0D8DE099
:1006F0000E94000D81EC91E00E940D0D8DE00E94A2
:10070000000D14C08D3029F41092F502FF24F394EB
:100710000DC08D3059F091E09093F502E1E0F0E0EA
:10072000EC0FFD1FE10FF11D80831F5FFF2099F289
:10073000F12C10E047C08F2D90E00E949A06082F00
:10074000F394843209F441C0E1E0F0E0EC0FFD1FC6
:10075000E10FF11D80810817A1F18DE00E94000DCD
:100760008DEC91E00E940D0D8DE00E94000D8091B6
:100770006000823069F0833019F0813031F510C0AB
:100780008CED91E00E940D0D8DE00E94000D1DC0CA
:100790008CEE91E00E940D0D8DE00E94000D15C0C1
:1007A0008DE00E94000D8BEF91E00E940D0D8DE019
:1007B0000E94000D86E092E00E940D0D0E947C06D2
:1007C000FDCF1F5F183208F4B6CF809160008150D2
:1007D00080936000043209F041CF8DE00E94000D4B
:1007E00083E192E00E940D0D8DE00E94000D85E2F4
:1007F00092E00E940D0D8DE00E94000D81E392E0D9
:100800000E940D0D8DE00E94000D80E492E00E9498
:100810000D0D8FEF90E00E949A06182F0E94AE06F1
:10082000823309F482C0833309F4F8C08133F9F6C6
:100830008DE00E94000D88E492E00E940D0D0E9460
:10084000AE068D3099F49091F50291110FC087E8B2
:1008500091E00E940D0D8DE00E94000D88E492E071
:100860000E940D0D8DE00E94000DE9CF8D30A1F4A6
:100870001092F502612F8FEF90E00E9481068DE0CB
:100880000E94000D8EE492E00E940D0D8FEF90E02B
:100890000E949A06182F0CC08D3089F291E0909337
:1008A000F502682F812F90E00E9481061F5FC7CF5D
:1008B0000E94AE068D3099F49091F50291110FC00F
:1008C00087E891E00E940D0D8DE00E94000D8EE4FE
:1008D00092E00E940D0D8DE00E94000DE9CF8D3059
:1008E00051F091E09093F502682F812F90E00E94E3
:1008F00081061F5FDDCF8D30D9F664E2812F90E055
:100900000E9481061092F50261E0610F8FEF90E086
:100910000E9481068DE00E94000D89E592E00E9410
:100920000D0D8DE00E94000D62CF8DE00E94000D44
:1009300085E692E00E940D0D84E792E00E940D0D85
:100940008DE00E94000D00E010E00E94AE068D30A8
:1009500089F0D9F3E1E0F0E0EC0FFD1FE10FF11DAC
:1009600080831F5F802F90E00E949A06843269F393
:100970000F5FEBCF0F3F79F48DE00E94000D8EE703
:1009800092E00E940D0D8DE00E94000D8CE892E037
:100990000E940D0D2CCF0F5F102FE12CE1E0F0E055
:1009A000EC0FFD1FEE0DF11DF080812F90E00E94F5
:1009B0009A06F8122AC00F5F8DE00E94000D83E9AD
:1009C00092E00E940D0D802F90E00E949A068432E2
:1009D000C9F405C06FEFC7010E9481061150E12ED6
:1009E000F12CC7010E949A068432A1F78DE00E9483
:1009F000000D80EA92E00E940D0D8DE00E94000D36
:100A000081E008C01F5FE394C9CF1F5F0F5F0F3FF6
:100A100029F680E0813009F0ADCFE9CE8DE00E946B
:100A2000000D8EEA92E00E940D0D8DE00E94000DF7
:100A30008BEB92E00E940D0D8DE00E94000D8CEC7E
:100A400092E00E940D0D8DE00E94000D8EED92E06F
:100A50000E940D0D8DE00E94000D0E94AE068823BD
:100A600049F18333B9F028F4813341F0823361F0E6
:100A700023C08433A9F08533C9F01EC00E94BF088B
:100A80000E94CA0080E019C00E94BF080E941101A4
:100A900080E013C00E94BF080E94480180E00DC0A2
:100AA0000E94BF080E94A50180E007C00E94BF0805
:100AB00081E003C080E001C080E0813009F0B8CF60
:100AC00096CEA5E1FA12BFCD67E370E080E090E03A
:100AD0000E94530883E0809360008DEB91E00E94B8
:100AE000400810E001E035C00E9425078D30C1F4B8
:100AF0009091F502911114C088E891E00E9440089D
:100B0000BFEF2EE984E2B15020408040E1F700C001
:100B100000000E94BF088DEB91E00E94400819C0C0
:100B20008D3021F41092F50200E013C091E0909313
:100B3000F502E1E0F0E0EC0FFD1FE10FF11D808315
:100B40000E9488071F5FAFE3BCE91197F1F700C06F
:100B500000000111C9CFBFEF27E883E1B150204069
:100B60008040E1F700C000000E94BF0882EC91E0E5
:100B70000E94400860E081E00E94C3083BC00E94E0
:100B800025078D30E1F49091F502911118C088E8A5
:100B900091E00E9440089FEFAEE9B4E29150A0407E
:100BA000B040E1F700C000000E94BF0882EC91E075
:100BB0000E94400860E081E00E94C3081BC08D30A5
:100BC00021F41092F50201E015C08D3099F091E00A
:100BD0009093F502E1E0F0E0EC0FFD1FE10FF11D55
:100BE00080830E9488071F5F8FE39CE90197F1F7DC
:100BF00000C00000002319F200E010E06FC0802F59
:100C000090E00E949A060F5FE1E0F0E0EC0FFD1F1C
:100C1000E10FF11D908189130EC00E94BF0884E985
:100C200092E00E944008802F90E00E949A06843251
:100C300009F053C056C0891709F44FC00E94BF087D
:100C40008EEC91E00E9440089FEFA9E6B8E1915038
:100C5000A040B040E1F700C0000060E081E00E94E9
:100C6000C308809160008230A9F0833019F0813090
:100C7000C1F520C08DED91E00E9440082FEF89E67C
:100C800098E1215080409040E1F700C000000E94B0
:100C9000BF0827C08DEE91E00E944008AFEFB9E693
:100CA00028E1A150B0402040E1F700C000000E94C0
:100CB000BF0817C00E94BF0864E080E00E94C3081C
:100CC0008CEF91E00E94400860E081E00E94C30840
:100CD00087E092E00E944008FFCF1F5F1F3F09F0AE
:100CE0008ECF80916000815080936000F6CE61E0ED
:100CF0008DE00E94BF09089561E08DE00E94D10A55
:100D00000895E199FECF07B600FCFDCF8F3F910516
:100D100009F010F48EBB04C08EBB892F83708FBB8B
:100D20006DBB8CB384608CBB8CB382608CBBE1994F
:100D3000FECF0895E199FECF8F3F910509F010F4A1
:100D40008EBB04C08EBB892F83708FBB8CB3816038
:100D50008CBB8DB308950E94EE0C08950E94040D83
:100D6000089561E08CE20E94BF0961E08DE20E947B
:100D7000BF0961E083E20E94BF0961E082E20E9454
:100D8000BF0961E081E20E94BF0961E084E20E9444
:100D9000BF09089561E08CE20E94D10A61E083E21C
:100DA0000E94D10A62E082E20E94D10A089562E0C4
:100DB0008CE20E94D10A62E083E20E94D10A62E0E2
:100DC00082E20E94D10A089561E088E10E94BF0991
:100DD00061E089E10E94BF0961E08AE10E94BF09E8
:100DE00061E08BE10E94BF0962E08EE10E94BF09D1
:100DF00062E08FE10E94BF0962E080E20E94BF09C9
:100E000062E081E20E94BF0961E088E10E94D10AAC
:100E100061E089E10E94D10A61E08AE10E94D10A81
:100E200061E08BE10E94D10A61E08EE10E94480AF4
:100E300061E08FE10E94480A61E080E20E94480A76
:100E400061E081E20E94480A0895FF920F931F9388
:100E5000CF93DF93CDB7DEB760970FB6F894DEBFC0
:100E60000FBECDBF80E1E1E6F0E0DE01119601901A
:100E70000D928A95E1F708E1F12C3BC062E0802FEA
:100E80000E94D10A1EE12EC0812F0E945A0B8111AF
:100E900028C02FEF40E752E0215040405040E1F79A
:100EA00000C00000812F0E945A0B81111AC0812FAF
:100EB0000E945A0B8823D9F3802F90E04897212F66
:100EC00030E02E513109880F991F880F991F41E09A
:100ED00050E04C0F5D1F840F951FFC01E20FF31FC4
:100EE000F0801F5F123280F261E0802F0E94D10AF1
:100EF0000F5F0C3118F28F2D60960FB6F894DEBF9D
:100F00000FBECDBFDF91CF911F910F91FF9008953C
:100F1000CF93C82F61E085E10E94D10A8BB39C2F4B
:100F2000907F8F70892B8BBB61E08EE20E94D10A8B
:100F30008FE99FE00197F1F700C0000062E08EE2C8
:100F40000E94D10A8FE19EE40197F1F700C00000F2
:100F500020E1C29FC00111249BB39F70892B8BBBE2
:100F600061E08EE20E94D10A8FE99FE00197F1F7DC
:100F700000C0000062E08EE20E94D10A8FE19EE490
:100F80000197F1F700C00000CF910895CF93C82FCB
:100F900062E085E10E94D10A8BB39C2F907F8F7015
:100FA000892B8BBB61E08EE20E94D10A8FE99FE022
:100FB0000197F1F700C0000062E08EE20E94D10AC2
:100FC0008FE19EE40197F1F700C0000020E1C29F8D
:100FD000C00111249BB39F70892B8BBB61E08EE213
:100FE0000E94D10A8FE99FE00197F1F700C000004D
:100FF00062E08EE20E94D10A8FE19EE40197F1F750
:1010000000C00000CF91089561E08EE00E94BF090A
:1010100061E08FE00E94BF0961E080E10E94BF09AA
:1010200061E081E10E94BF0961E085E10E94BF09A2
:1010300061E08EE20E94BF0961E086E10E94BF0983
:1010400062E086E10E94D10A2FEF83ED90E3215008
:1010500080409040E1F700C0000083E30E94C60793
:1010600082E30E94C60788E20E94C6078CE00E94C5
:10107000C60781E00E94C60782E00E94C607089565
:101080000F931F93CF938C01C0E003C00E94880789
:10109000CF5FF801EC0FF11D80818111F7CFCF9167
:1010A0001F910F910895CF92DF92EF92FF921F93BD
:1010B000CF93DF93CDB7DEB72A970FB6F894DEBF94
:1010C0000FBECDBF6B017C01FE0131968AE0DF01CE
:1010D0001D928A95E9F7C114D104E104F10421F4C9
:1010E00080E30E9488073DC0FF205CF48DE20E94EF
:1010F0008807F094E094D094C094C11CD11CE11CEA
:10110000F11C10E016C0C701B6012AE030E040E053
:1011100050E00E94290DE1E0F0E0EC0FFD1FE10F2F
:10112000F11D17FDFA9560831F5FC22ED32EE42EAA
:10113000F52EC114D104E104F10429F7FF24FA9437
:10114000F10E0DC0E1E0F0E0EC0FFD1FEF0DF11D21
:10115000F7FCFA958081805D0E948807FA94FF2051
:101160008CF72A960FB6F894DEBF0FBECDBFDF9185
:10117000CF911F91FF90EF90DF90CF90089581E085
:101180000E94C6070895CF93DF9300D0CDB7DEB796
:1011900090E8998390EC9A83E1E0F0E0EC0FFD1F7A
:1011A000E80FF11D8081860F0E94C6070F900F90F7
:1011B000DF91CF9108958230A9F028F4882341F07F
:1011C000813059F00895833091F08430A9F008956A
:1011D00061E084E20E94BF09089561E085E20E9417
:1011E000BF09089561E08BE20E94BF09089561E0A4
:1011F00084E10E94BF09089561E08DE20E94BF0969
:1012000008958230A9F028F4882341F0813059F004
:101210000895833091F08430A9F0089561E084E26C
:101220000E94D10A089561E085E20E94D10A0895E2
:1012300061E08BE20E94D10A089561E084E10E949E
:10124000D10A089561E08DE20E94D10A08958230AA
:10125000A9F028F4882341F0813059F008958330B3
:1012600091F08430A9F0089562E084E20E94D10AEE
:10127000089562E085E20E94D10A089562E08BE25F
:101280000E94D10A089562E084E10E94D10A089583
:1012900062E08DE20E94D10A089587B18F7787B905
:1012A00087B1806487B987B18F7D87B986B1887F20
:1012B00086B986B1876086B986B1806886B9089597
:1012C0006115710501F141155105F9F09091F9028F
:1012D00091111DC091E09093F9027093FD0260930B
:1012E000FC025093FB024093FA0297B1907E97B9AB
:1012F00097B1892B87B986B1806486B986B1886039
:1013000086B981E0089583E0089583E0089581E03F
:1013100008951F920F920FB60F9211242F933F93AF
:101320004F935F936F937F938F939F93AF93BF93ED
:10133000EF93FF93E091FC02F091FD0284B195B12F
:101340009183808386B1877F86B91092F902E091FC
:10135000FA02F091FB02309709F00995FF91EF91A5
:10136000BF91AF919F918F917F916F915F914F91BD
:101370003F912F910F900FBE0F901F9018959DECED
:10138000899F912D1124292F269526952695220F88
:10139000322F330F330F230F821B282F96959695EC
:1013A0009695613019F06230C1F108959230A1F044
:1013B00018F4913031F008959330C9F0943011F160
:1013C00008953AB381E090E002C0880F991F2A95F2
:1013D000E2F7832B8ABB089537B381E090E002C027
:1013E000880F991F2A95E2F7832B87BB089534B3A2
:1013F00081E090E002C0880F991F2A95E2F7832BC5
:1014000084BB089531B381E090E002C0880F991F3A
:101410002A95E2F7832B81BB08959230A9F018F446
:10142000913031F008959330D9F0943029F1089536
:101430003AB381E090E002C0880F991F2A95E2F745
:10144000809583238ABB089537B381E090E002C082
:10145000880F991F2A95E2F78095832387BB08950B
:1014600034B381E090E002C0880F991F2A95E2F71B
:101470008095832384BB089531B381E090E002C05E
:10148000880F991F2A95E2F78095832381BB0895E1
:101490009DEC899F912D1124292F2695269526951F
:1014A000220F322F330F330F230F821B282F9695D5
:1014B00096959695613019F06230C1F10895923099
:1014C000A1F018F4913031F008959330C9F09430C0
:1014D00011F108953BB381E090E002C0880F991F9D
:1014E0002A95E2F7832B8BBB089538B381E090E017
:1014F00002C0880F991F2A95E2F7832B88BB0895B5
:1015000035B381E090E002C0880F991F2A95E2F779
:10151000832B85BB089532B381E090E002C0880F31
:10152000991F2A95E2F7832B82BB08959230A9F088
:1015300018F4913031F008959330D9F0943029F1B6
:1015400008953BB381E090E002C0880F991F2A956F
:10155000E2F7809583238BBB089538B381E090E058
:1015600002C0880F991F2A95E2F78095832388BBD4
:10157000089535B381E090E002C0880F991F2A9545
:10158000E2F78095832385BB089532B381E090E034
:1015900002C0880F991F2A95E2F78095832382BBAA
:1015A00008959DEC899F912D1124292F269526952C
:1015B0002695220F322F330F330F230F821B282F34
:1015C000969596959695613019F06230C1F108951F
:1015D0009230A1F018F4913031F008959330C9F0B1
:1015E000943011F108953BB381E090E002C0880F80
:1015F000991F2A95E2F7832B8BBB089538B381E0BE
:1016000090E002C0880F991F2A95E2F7832B88BBD0
:10161000089535B381E090E002C0880F991F2A95A4
:10162000E2F7832B85BB089532B381E090E002C0DE
:10163000880F991F2A95E2F7832B82BB0895923079
:10164000A9F018F4913031F008959330D9F0943026
:1016500029F108953BB381E090E002C0880F991F03
:101660002A95E2F7809583238BBB089538B381E0F8
:1016700090E002C0880F991F2A95E2F78095832396
:1016800088BB089535B381E090E002C0880F991FB0
:101690002A95E2F78095832385BB089532B381E0D4
:1016A00090E002C0880F991F2A95E2F78095832366
:1016B00082BB08959DEC899F912D1124292F269599
:1016C00026952695220F322F330F330F230F821BBF
:1016D000282F892F869586958695823091F018F46B
:1016E000813031F029C08330A9F08430E1F024C08A
:1016F00089B390E002C0959587952A95E2F78170AD
:10170000089586B390E002C0959587952A95E2F7F3
:101710008170089583B390E002C0959587952A95CE
:10172000E2F78170089580B390E002C095958795A7
:101730002A95E2F78170089580E0089562E08AE2D8
:101740000E94BF0962E08BE20E94BF0961E08AE269
:101750000E94480A61E08AE20E94480A08950E94B5
:101760009E0B85B78E7F85BF85B7826085BF85B7A5
:10177000846085BF85B7877F85BF84B7877F84BF37
:101780008BB780648BBF8BB78F778BBF8BB78F7D09
:101790008BBF08956115710551F0833040F4E82F37
:1017A000F0E0EE0FFF1FE250FD4F7183608308955C
:1017B0001F920F920FB60F9211242F933F934F93C6
:1017C0005F936F937F938F939F93AF93BF93EF93A9
:1017D000FF93E091FE02F091FF02309709F0099526
:1017E000FF91EF91BF91AF919F918F917F916F91F9
:1017F0005F914F913F912F910F900FBE0F901F90CF
:1018000018951F920F920FB60F9211242F933F93AA
:101810004F935F936F937F938F939F93AF93BF93F8
:10182000EF93FF93E0910003F0910103309709F0EB
:101830000995FF91EF91BF91AF919F918F917F910A
:101840006F915F914F913F912F910F900FBE0F902D
:101850001F9018951F920F920FB60F9211242F937D
:101860003F934F935F936F937F938F939F93AF9328
:10187000BF93EF93FF93E0910203F091030330973E
:1018800009F00995FF91EF91BF91AF919F918F91D1
:101890007F916F915F914F913F912F910F900FBE6C
:1018A0000F901F9018957894089583B7806483BF34
:1018B00083B7886083BF80E782BF83B7887F83BF99
:1018C00083B7836083BF83B78F7E83BF83B7806214
:1018D00083BF08958CBF08951F920F920FB60F9289
:1018E00011242F933F934F935F936F937F938F9325
:1018F0009F93AF93BF93EF93FF93809104039091D5
:10190000050301969093050380930403813D934062
:1019100069F480E782BF1092050310920403E091FE
:101920000803F0910903309709F00995FF91EF91B1
:10193000BF91AF919F918F917F916F915F914F91E7
:101940003F912F910F900FBE0F901F9018958FB55C
:101950008E7F8FBD8FB58D7F8FBD8EB5877F8EBDFE
:101960008EB58F7E8EBD8EB581608EBD8EB58D7F1E
:101970008EBD8EB584608EBD89B7846089BF0895A1
:10198000909307038093060308951F920F920FB65A
:101990000F9211242F933F934F935F936F937F93F5
:1019A0008F939F93AF93BF93EF93FF93E0910603C1
:1019B000F0910703309709F00995FF91EF91BF91DE
:1019C000AF919F918F917F916F915F914F913F91D7
:1019D0002F910F900FBE0F901F90189581B38E7F9F
:1019E00081BB81B3826081BB87E689B910BC86E880
:1019F00080BD8AB180618AB98AB188608AB9089548
:101A00008CB95E9BFECF089504C080910E038111B6
:101A100002C05F9BFACF8CB108950F931F93CF93B1
:101A2000009759F412C00E94000DCF5F8FE39CE92C
:101A30000197F1F700C0000002C08C01C0E0F8017E
:101A4000EC0FF11D80818111EECFCF911F910F918D
:101A50000895052E97FB1EF400940E94400D57FD3B
:101A600007D00E945D0D07FC03D04EF40C94400D8E
:101A700050954095309521953F4F4F4F5F4F0895BA
:101A800090958095709561957F4F8F4F9F4F0895EA
:101A9000EE0FFF1F0590F491E02D0994A29FB00175
:101AA000B39FC001A39F700D811D1124911DB29F92
:101AB000700D811D1124911D0895A1E21A2EAA1BFB
:101AC000BB1BFD010DC0AA1FBB1FEE1FFF1FA217EE
:101AD000B307E407F50720F0A21BB30BE40BF50BEB
:101AE000661F771F881F991F1A9469F76095709574
:101AF000809590959B01AC01BD01CF010895F894AC
:021B0000FFCF15
:101B020003373839413435362A3132332D63303D8B
:101B12002B57656C636F6D6520746F20796F7572DA
:101B22000057656C636F6D6520746F20796F7572F5
:101B320020686F6D6520736972002050726573733F
:101B42002027412720546F002050726F636565641F
:101B52000020312D446F6F72204F70656E0020326D
:101B62002D446F6F7220436C6F7365002020444FC9
:101B72004E450020312D4C6967687473204F4E002A
:101B820020322D4C6967687473204F464600204509
:101B92006E74657220696E74656E736974792066FD
:101BA200726F6D20303A39004C4F4144494E472EF6
:101BB2002E2E2E2E002043757272656E742074656F
:101BC2006D7065726174757265206973203A2000C8
:101BD200202020312D414320456E61626C6500203A
:101BE200322D41432044697361626C650020546860
:101BF200652046697273742074696D6520796F750A
:101C0200206E65656420746F20637265617465205F
:101C1200616E2061646D696E0020456E746572208C
:101C22004E616D653A2000204572726F7220706CB1
:101C3200656173652074727920616761696E004E17
:101C42006F7720456E7465722050617373776F727F
:101C5200643A2000204C6F6720496E002049443AC4
:101C6200002050415353574F52443A20002057729C
:101C72006F6E672049442F50415353002032207425
:101C82007269616C73206C65667420002031207467
:101C92007269616C206C656674200020454D455266
:101CA20047454E4359002043414C4C494E47203949
:101CB200313100205375636365737366756C204C14
:101CC2004F47494E0020312D41444420555345523F
:101CD2000020322D52454D4F564520555345520056
:101CE20020332D4D454E55002049443A20002050C6
:101CF200415353574F52443A0020555345522041C5
:101D0200444445440020456E74657220494426507F
:101D12004153530020436F6D62696E656400205524
:101D220053455220444F45534E27540020455849AD
:101D320053540020434845434B494E472E2E2E0014
:101D420020555345522044454C45544544002057A4
:101D5200656C636F6D65207369720020312D446F6D
:101D62006F722020322D4C696768740020332D4435
:101D7200696D5F4C6967687420342D4143002035DA
:101D82002D4261636B20546F204D61696E204D6559
:041D92006E7500006A
:00000001FF
