:100000000C9434000C946A0B0C94930B0C94BC0B62
:100010000C9451000C9451000C9451000C9451001C
:100020000C9451000C94570C0C9451000C94FE0B42
:100030000C9451000C9451000C9451000C945100FC
:100040000C941B090C9451000C9451000C94510019
:100050000C9451006001640168016C01700174012D
:1000600078017C018001840111241FBECFE5D8E016
:10007000DEBFCDBF12E0A0E6B0E0E4EAF9E102C0E5
:1000800005900D92AA3FB107D9F723E0AAEFB2E09D
:1000900001C01D92A531B207E1F70E9410020C9435
:1000A000D00C0C9400002091FE023091FF02A8E8D1
:1000B000B3E10E94C10C9B01AC01012E1AE05695E0
:1000C0004795379527951A95D1F7102D3093120340
:1000D00020931103ADECBCEC0E94C10C9695879562
:1000E000969587959695879580931303089581E05B
:1000F0008093140304C00E9423078093FA02809126
:10010000FA028823C1F3089560E080E00E94550858
:1001100080E790E00E943E0860E081E00E94550880
:1001200080E990E00E943E082FEF89E698E1215097
:1001300080409040E1F700C000000E9451082FEF7E
:1001400089E698E1215080409040E1F700C000002E
:100150008AE990E00E943E0860E081E00E94550834
:1001600088EA90E00E943E0880E890E00E949F0CA0
:100170008DE00E94920C89E990E00E949F0C8DE036
:100180000E94920C87EA90E00E949F0C8DE00E94F2
:10019000920C089561E08FE20E9451098DE00E9467
:1001A000920C80EB90E00E949F0C8DE00E94920CDC
:1001B0008DEB90E00E949F0C0E94AC068133B1F45D
:1001C00061E08FE20E94630A8FE39FE10197F1F7FC
:1001D00000C0000062E08FE20E94630A8DE00E948E
:1001E000920C8DEC90E00E949F0C08958233C1F434
:1001F00061E08FE20E94630A8FE697E10197F1F7D1
:1002000000C0000062E08FE20E94630A8DE00E945D
:10021000920C8BEC90E00E949F0C8DE00E94920C5F
:1002200008958DE00E94920C82ED90E00E949F0C58
:100230008DE00E94920C8FED90E00E949F0C8DE06B
:100240000E94920C0E94AC06813381F480E00E94EF
:10025000930881E00E94930882E00E94930883E063
:100260000E94930884E00E9493080895813379F4F2
:1002700080E00E94B90881E00E94B90882E00E94F3
:10028000B90883E00E94B90884E00E94B908089583
:100290008DE00E94920C8DEE90E00E949F0C8DE00C
:1002A0000E94920C0E94AC06882389F190E0FC0128
:1002B000F097EA30F10558F5E65DFF4F0C94BB0C62
:1002C00082E00E94FC0B089589E10E94FC0B0895D6
:1002D00082E30E94FC0B08958BE40E94FC0B0895BE
:1002E00084E60E94FC0B08958DE70E94FC0B0895A4
:1002F00086E90E94FC0B08958FEA0E94FC0B08958A
:1003000088EC0E94FC0B08958AEF0E94FC0B089574
:1003100043E550E06EEF72E080E00E94F20808953D
:100320000E9488018091FD02813061F48091130365
:100330008C3118F00E94C8060895853128F40E9477
:10034000D50608950E94D5060895CF93DF9387E0E0
:1003500091E00E949F0C809113038823E1F32FEF1B
:1003600080E792E0215080409040E1F700C000001B
:10037000809113039DEC899F912D1124969596955C
:100380009695D0E3D90F990F292F220F220F920FA4
:10039000891BC0E3C80F8DE00E94920C2FEF80E70D
:1003A00092E0215080409040E1F700C0000084E1DD
:1003B00091E00E949F0C2FEF80E792E02150804057
:1003C0009040E1F700C000008D2F0E94920C2FEFAB
:1003D00080E792E0215080409040E1F700C00000AB
:1003E0008C2F0E94920C8DE00E94920C8FE291E083
:1003F0000E949F0C8DE00E94920C8EE391E00E947F
:100400009F0C0E94AC06813321F481E08093FD02B1
:1004100004C0823311F41092FD02DF91CF91089550
:10042000CF93DF93CDB7DEB7A8970FB6F894DEBFB2
:100430000FBECDBF0E9402080E9475060E94A90649
:100440000E94AF060E94DF080E94AF060E94390C8E
:1004500080E991E00E94520C0E94E70B82E00E942A
:10046000FC0B0E94410B61E087E10E9451090E9450
:10047000E50B80E00E946D0881E00E946D0882E03B
:100480000E946D0883E00E946D0884E00E946D0860
:100490000E94E20667E770E080E00E945C0BFE01CC
:1004A000319688E2DF011D928A95E9F70E94840067
:1004B00080E004C00E94AC06811104C09091140336
:1004C0009923C1F3813441F0813641F09091FA02D1
:1004D0009134A1F705E103C004E101C004E180E02B
:1004E00090E00E949806F82EBFEF8B13A0C08CE41A
:1004F00091E00E949F0C2FEF8EE994E22150804002
:100500009040E1F700C000008DE00E94920C88E767
:1005100091E00E949F0C8DE00E94920C10E02CC094
:100520000E94AC068D30E1F49091FB02911118C04D
:1005300086E891E00E949F0CAFEFBEE924E2A15053
:10054000B0402040E1F700C000008DE00E94920C16
:1005500088E791E00E949F0C8DE00E94920C0CC0F5
:100560008D3071F049F091E09093FB02682F812F5C
:1005700090E00E947F061F5F8091FC02882381F239
:100580001092FB028DE00E94920C8FEF9EE9A4E294
:1005900081509040A040E1F700C000008EE991E05A
:1005A0000E949F0C8DE00E94920C3CC00E94AC0601
:1005B0008D30E1F49091FB02911118C087E891E031
:1005C0000E949F0CBFEF2EE984E2B1502040804092
:1005D000E1F700C000008DE00E94920C88EA91E0F3
:1005E0000E949F0C8DE00E94920C1CC08D3051F037
:1005F00091E09093FB02682F812F90E00E947F068C
:100600001F5F10C08D3071F464E2812F90E00E9472
:100610007F061F5F612F8FEF90E00E947F0681E0D1
:100620008093FC028091FC02882309F4BFCF81E013
:100630008093FB02043109F037C283EB91E00E9402
:100640009F0C8DE00E94920C03E0B7C08CEB91E010
:100650000E949F0C10E0EE24E39427C00E94AC0699
:100660008D3081F49091FB0291110CC086E891E0ED
:100670000E949F0C8DE00E94920C8BEB91E00E94F7
:100680009F0C13C08D3021F41092FB02E12C0DC0A1
:100690008D3059F091E09093FB02E1E0F0E0EC0F37
:1006A000FD1FE10FF11D80831F5F91E0E916B1F29C
:1006B0008DE00E94920C80EC91E00E949F0C8DE0F6
:1006C0000E94920C2BC00E94AC068D3099F4909140
:1006D000FB0291110FC086E891E00E949F0C8DE013
:1006E0000E94920C80EC91E00E949F0C8DE00E9491
:1006F000920C14C08D3029F41092FB02EE24E39486
:100700000DC08D3059F091E09093FB02E1E0F0E0F4
:10071000EC0FFD1FE10FF11D80831F5FEE2099F2AA
:10072000E12C10E046C08E2D90E00E949806F82E35
:10073000E394A4E28A1709F43FC0E1E0F0E0EC0F93
:10074000FD1FE10FF11D8081F81691F18DE00E94EF
:10075000920C8CEC91E00E949F0C8DE00E94920C18
:10076000023069F0033019F0013031F510C08BED23
:1007700091E00E949F0C8DE00E94920C1DC08BEEB8
:1007800091E00E949F0C8DE00E94920C15C08DE0BC
:100790000E94920C8AEF91E00E949F0C8DE00E94D3
:1007A000920C85E092E00E949F0C0E947A06FDCF99
:1007B0001F5F183208F4B7CF0150B4E2FB1246CFE6
:1007C0008DE00E94920C82E192E00E949F0C8DE0ED
:1007D0000E94920C84E292E00E949F0C8DE00E94A5
:1007E000920C80E392E00E949F0C8DE00E94920C9C
:1007F0008FE392E00E949F0C8FEF90E00E9498069A
:10080000182F0E94AC06823309F482C0833309F4A6
:10081000F8C08133F9F68DE00E94920C87E492E0F3
:100820000E949F0C0E94AC068D3099F49091FB02BF
:1008300091110FC086E891E00E949F0C8DE00E940C
:10084000920C87E492E00E949F0C8DE00E94920C33
:10085000E9CF8D30A1F41092FB02612F8FEF90E071
:100860000E947F068DE00E94920C8DE492E00E942F
:100870009F0C8FEF90E00E949806182F0CC08D30CF
:1008800089F291E09093FB02682F812F90E00E9403
:100890007F061F5FC7CF0E94AC068D3099F4909100
:1008A000FB0291110FC086E891E00E949F0C8DE041
:1008B0000E94920C8DE492E00E949F0C8DE00E94B9
:1008C000920CE9CF8D3051F091E09093FB02682FAC
:1008D000812F90E00E947F061F5FDDCF8D30D9F61B
:1008E00064E2812F90E00E947F061092FB0261E09B
:1008F000610F8FEF90E00E947F068DE00E94920CC6
:1009000088E592E00E949F0C8DE00E94920C62CFDD
:100910008DE00E94920C84E692E00E949F0C83E797
:1009200092E00E949F0C8DE00E94920C00E010E08B
:100930000E94AC068D3089F0D9F3E1E0F0E0EC0FD5
:10094000FD1FE10FF11D80831F5F802F90E00E944B
:100950009806843269F30F5FEBCF0F3F79F48DE097
:100960000E94920C8DE792E00E949F0C8DE00E9405
:10097000920C8BE892E00E949F0C2CCF0F5F102FFF
:10098000E12CE1E0F0E0EC0FFD1FEE0DF11DF08039
:10099000812F90E00E949806F8122AC00F5F8DE028
:1009A0000E94920C82E992E00E949F0C802F90E0BE
:1009B0000E9498068432C9F405C06FEFC7010E94F7
:1009C0007F061150E12EF12CC7010E949806843257
:1009D000A1F78DE00E94920C8FE992E00E949F0C9B
:1009E0008DE00E94920C81E008C01F5FE394C9CFA4
:1009F0001F5F0F5F0F3F29F680E0813009F0ADCF18
:100A0000E9CE8DE00E94920C8DEA92E00E949F0C4C
:100A10008DE00E94920C8AEB92E00E949F0C8DE088
:100A20000E94920C8BEC92E00E949F0C8DE00E9441
:100A3000920C8DED92E00E949F0C8DE00E94920C32
:100A40000E94AC06882349F18333B9F028F481333E
:100A500041F0823361F023C08433A9F08533C9F0BB
:100A60001EC00E9451080E94CA0080E019C00E9466
:100A700051080E94110180E013C00E9451080E9499
:100A8000480180E00DC00E9451080E94A50180E04D
:100A900007C00E94510881E003C080E001C080E0EF
:100AA000813009F0B8CF96CE053109F0C3CD82EF81
:100AB00092E00E943E082FEF8EE994E221508040A0
:100AC0009040E1F700C000000E94510803E08CEB69
:100AD00091E00E943E0860E081E00E94550810E02D
:100AE000FF24F39439C00E9423078D33E1F49091E1
:100AF000FB02911118C087E891E00E943E08AFEF19
:100B0000BEE924E2A150B0402040E1F700C000005F
:100B10000E9451088CEB91E00E943E0860E081E069
:100B20000E94550819C08D3321F41092FB02F12C5C
:100B300013C091E09093FB02E1E0F0E0EC0FFD1FA9
:100B4000E10FF11D80830E9486071F5F8FE39CE900
:100B50000197F1F700C00000F110C5CF0E945108C5
:100B600081EC91E00E943E089FEFAEE9B4E2915023
:100B7000A040B040E1F700C0000060E081E00E94CA
:100B800055083CC00E9423078D33E1F49091FB028D
:100B9000911118C087E891E00E943E082FEF8EE97E
:100BA00094E2215080409040E1F700C000000E9494
:100BB000510881EC91E00E943E0860E081E00E94D3
:100BC00055081CC08D3329F41092FB02FF24F394C6
:100BD00015C08D3399F091E09093FB02E1E0F0E0D5
:100BE000EC0FFD1FE10FF11D80830E9486071F5F40
:100BF000AFE3BCE91197F1F700C00000FF2011F24C
:100C0000F12C10E06DC08F2D90E00E949806F394B7
:100C1000E1E0F0E0EC0FFD1FE10FF11D9081891381
:100C20000EC00E94510883E992E00E943E088F2D79
:100C300090E00E949806843209F051C054C0891790
:100C400009F44DC00E9451088DEC91E00E943E08CD
:100C5000BFEF29E688E1B15020408040E1F700C0B5
:100C6000000060E081E00E9455080230A9F00330E6
:100C700019F00130C1F520C08CED91E00E943E08D2
:100C80009FEFA9E6B8E19150A040B040E1F700C065
:100C900000000E94510827C08CEE91E00E943E089F
:100CA0002FEF89E698E1215080409040E1F700C0A5
:100CB00000000E94510817C00E94510864E080E0C3
:100CC0000E9455088BEF91E00E943E0860E081E0B1
:100CD0000E94550886E092E00E943E08FFCF1F5F09
:100CE0001F3F09F090CF0150F2CE61E08DE00E94ED
:100CF0005109089561E08DE00E94630A0895E19929
:100D0000FECF07B600FCFDCF8F3F910509F010F430
:100D10008EBB04C08EBB892F83708FBB6DBB8CB321
:100D200084608CBB8CB382608CBBE199FECF08954C
:100D3000E199FECF8F3F910509F010F48EBB04C0FE
:100D40008EBB892F83708FBB8CB381608CBB8DB3BE
:100D500008950E94800C08950E94960C089561E009
:100D60008CE20E94510961E08DE20E94510961E02C
:100D700083E20E94510961E082E20E94510961E030
:100D800081E20E94510961E084E20E9451090895C4
:100D900061E08CE20E94630A61E083E20E94630AE0
:100DA00062E082E20E94630A089562E08CE20E949F
:100DB000630A62E083E20E94630A62E082E20E94C8
:100DC000630A089561E088E10E94510961E089E1C8
:100DD0000E94510961E08AE10E94510961E08BE1C2
:100DE0000E94510962E08EE10E94510962E08FE1A8
:100DF0000E94510962E080E20E94510962E081E2B2
:100E00000E94510961E088E10E94630A61E089E182
:100E10000E94630A61E08AE10E94630A61E08BE15B
:100E20000E94630A61E08EE10E94DA0961E08FE1CD
:100E30000E94DA0961E080E20E94DA0961E081E261
:100E40000E94DA090895FF920F931F93CF93DF93C7
:100E5000CDB7DEB760970FB6F894DEBF0FBECDBF3B
:100E600080E1E0E6F0E0DE01119601900D928A95B6
:100E7000E1F708E1F12C3BC062E0802F0E94630A99
:100E80001EE12EC0812F0E94EC0A811128C02FEF95
:100E900040E752E0215040405040E1F700C00000E0
:100EA000812F0E94EC0A81111AC0812F0E94EC0A46
:100EB0008823D9F3802F90E04897212F30E02E51DE
:100EC0003109880F991F880F991F41E050E04C0F9E
:100ED0005D1F840F951FFC01E20FF31FF0801F5F61
:100EE000123280F261E0802F0E94630A0F5F0C31A2
:100EF00018F28F2D60960FB6F894DEBF0FBECDBFEF
:100F0000DF91CF911F910F91FF900895CF93C82F3C
:100F100061E085E10E94630A8BB39C2F907F8F7004
:100F2000892B8BBB61E08EE20E94630A8FE99FE010
:100F30000197F1F700C0000062E08EE20E94630AB0
:100F40008FE19EE40197F1F700C0000020E1C29F0D
:100F5000C00111249BB39F70892B8BBB61E08EE293
:100F60000E94630A8FE99FE00197F1F700C000003B
:100F700062E08EE20E94630A8FE19EE40197F1F73E
:100F800000C00000CF910895CF93C82F62E085E1A3
:100F90000E94630A8BB39C2F907F8F70892B8BBB31
:100FA00061E08EE20E94630A8FE99FE00197F1F70A
:100FB00000C0000062E08EE20E94630A8FE19EE4BE
:100FC0000197F1F700C0000020E1C29FC001112489
:100FD0009BB39F70892B8BBB61E08EE20E94630AFA
:100FE0008FE99FE00197F1F700C0000062E08EE218
:100FF0000E94630A8FE19EE40197F1F700C00000B0
:10100000CF91089561E08EE00E94510961E08FE088
:101010000E94510961E080E10E94510961E081E193
:101020000E94510961E085E10E94510961E08EE270
:101030000E94510961E086E10E94510962E086E167
:101040000E94630A2FEF83ED90E32150804090408F
:10105000E1F700C0000083E30E94C40782E30E941E
:10106000C40788E20E94C4078CE00E94C40781E0A4
:101070000E94C40782E00E94C40708950F931F9343
:10108000CF938C01C0E003C00E948607CF5FF801B8
:10109000EC0FF11D80818111F7CFCF911F910F913E
:1010A000089581E00E94C4070895CF93DF9300D094
:1010B000CDB7DEB790E8998390EC9A83E1E0F0E059
:1010C000EC0FFD1FE80FF11D8081860F0E94C40701
:1010D0000F900F90DF91CF9108958230A9F028F4FE
:1010E000882341F0813059F00895833091F08430A5
:1010F000A9F0089561E084E20E945109089561E039
:1011000085E20E945109089561E08BE20E94510935
:10111000089561E084E10E945109089561E08DE243
:101120000E94510908958230A9F028F4882341F0E3
:10113000813059F00895833091F08430A9F00895FA
:1011400061E084E20E94630A089561E085E20E9402
:10115000630A089561E08BE20E94630A089561E0EA
:1011600084E10E94630A089561E08DE20E94630AAF
:1011700008958230A9F028F4882341F0813059F095
:101180000895833091F08430A9F0089562E084E2FC
:101190000E94630A089562E085E20E94630A08954E
:1011A00062E08BE20E94630A089562E084E10E949B
:1011B000630A089562E08DE20E94630A089587B190
:1011C0008F7787B987B1806487B987B18F7D87B9F9
:1011D00086B1887F86B986B1876086B986B1806816
:1011E00086B908956115710501F141155105F9F0B0
:1011F0009091000391111DC091E0909300037093B2
:10120000040360930303509302034093010397B1D7
:10121000907E97B997B1892B87B986B1806486B9DA
:1012200086B1886086B981E0089583E0089583E0FF
:10123000089581E008951F920F920FB60F92112426
:101240002F933F934F935F936F937F938F939F93CE
:10125000AF93BF93EF93FF93E0910303F0910403E7
:1012600084B195B19183808386B1877F86B91092CE
:101270000003E0910103F0910203309709F0099512
:10128000FF91EF91BF91AF919F918F917F916F915E
:101290005F914F913F912F910F900FBE0F901F9034
:1012A00018959DEC899F912D1124292F269526951F
:1012B0002695220F322F330F330F230F821B282F37
:1012C000969596959695613019F06230C1F1089522
:1012D0009230A1F018F4913031F008959330C9F0B4
:1012E000943011F108953AB381E090E002C0880F84
:1012F000991F2A95E2F7832B8ABB089537B381E0C3
:1013000090E002C0880F991F2A95E2F7832B87BBD4
:10131000089534B381E090E002C0880F991F2A95A8
:10132000E2F7832B84BB089531B381E090E002C0E3
:10133000880F991F2A95E2F7832B81BB089592307D
:10134000A9F018F4913031F008959330D9F0943029
:1013500029F108953AB381E090E002C0880F991F07
:101360002A95E2F7809583238ABB089537B381E0FD
:1013700090E002C0880F991F2A95E2F78095832399
:1013800087BB089534B381E090E002C0880F991FB5
:101390002A95E2F78095832384BB089531B381E0D9
:1013A00090E002C0880F991F2A95E2F78095832369
:1013B00081BB08959DEC899F912D1124292F26959D
:1013C00026952695220F322F330F330F230F821BC2
:1013D000282F969596959695613019F06230C1F157
:1013E00008959230A1F018F4913031F008959330BF
:1013F000C9F0943011F108953BB381E090E002C050
:10140000880F991F2A95E2F7832B8BBB089538B379
:1014100081E090E002C0880F991F2A95E2F7832BA4
:1014200088BB089535B381E090E002C0880F991F12
:101430002A95E2F7832B85BB089532B381E090E0D3
:1014400002C0880F991F2A95E2F7832B82BB08956B
:101450009230A9F018F4913031F008959330D9F01A
:10146000943029F108953BB381E090E002C0880FE9
:10147000991F2A95E2F7809583238BBB089538B393
:1014800081E090E002C0880F991F2A95E2F78095CD
:10149000832388BB089535B381E090E002C0880FB4
:1014A000991F2A95E2F78095832385BB089532B36F
:1014B00081E090E002C0880F991F2A95E2F780959D
:1014C000832382BB08959DEC899F912D1124292FA0
:1014D000269526952695220F322F330F330F230F93
:1014E000821B282F969596959695613019F062305B
:1014F000C1F108959230A1F018F4913031F00895BF
:101500009330C9F0943011F108953BB381E090E03D
:1015100002C0880F991F2A95E2F7832B8BBB089591
:1015200038B381E090E002C0880F991F2A95E2F756
:10153000832B88BB089535B381E090E002C0880F0B
:10154000991F2A95E2F7832B85BB089532B381E07A
:1015500090E002C0880F991F2A95E2F7832B82BB87
:1015600008959230A9F018F4913031F00895933035
:10157000D9F0943029F108953BB381E090E002C0A6
:10158000880F991F2A95E2F7809583238BBB0895D6
:1015900038B381E090E002C0880F991F2A95E2F7E6
:1015A0008095832388BB089535B381E090E002C025
:1015B000880F991F2A95E2F78095832385BB0895AC
:1015C00032B381E090E002C0880F991F2A95E2F7BC
:1015D0008095832382BB08959DEC899F912D1124D2
:1015E000292F269526952695220F322F330F330F5C
:1015F000230F821B282F892F86958695869582300A
:1016000091F018F4813031F029C08330A9F0843092
:10161000E1F024C089B390E002C0959587952A95A2
:10162000E2F78170089586B390E002C095958795A2
:101630002A95E2F78170089583B390E002C09595F2
:1016400087952A95E2F78170089580B390E002C0F3
:10165000959587952A95E2F78170089580E0089521
:1016600062E08AE20E94510962E08BE20E94510925
:1016700061E08AE20E94DA0961E08AE20E94DA0906
:1016800008950E94300B85B78E7F85BF85B7826035
:1016900085BF85B7846085BF85B7877F85BF84B7E1
:1016A000877F84BF8BB780648BBF8BB78F778BBFEF
:1016B0008BB78F7D8BBF08956115710551F0833015
:1016C00040F4E82FF0E0EE0FFF1FEB5FFC4F71835B
:1016D000608308951F920F920FB60F9211242F93DB
:1016E0003F934F935F936F937F938F939F93AF93AA
:1016F000BF93EF93FF93E0910503F09106033097BA
:1017000009F00995FF91EF91BF91AF919F918F9152
:101710007F916F915F914F913F912F910F900FBEED
:101720000F901F9018951F920F920FB60F921124D1
:101730002F933F934F935F936F937F938F939F93D9
:10174000AF93BF93EF93FF93E0910703F0910803EA
:10175000309709F00995FF91EF91BF91AF919F915B
:101760008F917F916F915F914F913F912F910F904A
:101770000FBE0F901F9018951F920F920FB60F92E9
:1017800011242F933F934F935F936F937F938F9386
:101790009F93AF93BF93EF93FF93E0910903F09171
:1017A0000A03309709F00995FF91EF91BF91AF912E
:1017B0009F918F917F916F915F914F913F912F9169
:1017C0000F900FBE0F901F9018957894089583B7CF
:1017D000806483BF83B7886083BF80E782BF83B79D
:1017E000887F83BF83B7836083BF83B78F7E83BFC8
:1017F00083B7806283BF08958CBF08951F920F92B4
:101800000FB60F9211242F933F934F935F936F93D3
:101810007F938F939F93AF93BF93EF93FF938091A9
:101820000B0390910C03019690930C0380930B0390
:10183000813D934069F480E782BF10920C031092BF
:101840000B03E0910F03F0911003309709F0099515
:10185000FF91EF91BF91AF919F918F917F916F9188
:101860005F914F913F912F910F900FBE0F901F905E
:1018700018958FB58E7F8FBD8FB58D7F8FBD8EB53F
:10188000877F8EBD8EB58F7E8EBD8EB581608EBDFD
:101890008EB58D7F8EBD8EB584608EBD89B7846018
:1018A00089BF089590930E0380930D0308951F92AE
:1018B0000F920FB60F9211242F933F934F935F9384
:1018C0006F937F938F939F93AF93BF93EF93FF9308
:1018D000E0910D03F0910E03309709F00995FF9107
:1018E000EF91BF91AF919F918F917F916F915F9198
:1018F0004F913F912F910F900FBE0F901F90189511
:1019000081B38E7F81BB81B3826081BB87E689B959
:1019100010BC86E880BD8AB180618AB98AB18860CE
:101920008AB908958CB95E9BFECF089504C080915A
:101930001403811102C05F9BFACF8CB108950F93FD
:101940001F93CF93009759F412C00E94920CCF5F5F
:101950008FE39CE90197F1F700C0000002C08C0101
:10196000C0E0F801EC0FF11D80818111EECFCF9125
:101970001F910F910895EE0FFF1F0590F491E02D38
:101980000994A29FB001B39FC001A39F700D811D58
:101990001124911DB29F700D811D1124911D089578
:0419A000F894FFCFE9
:1019A4003132334134353642373839432A303D44B5
:1019B40057656C636F6D6520746F20796F75720065
:1019C40057656C636F6D6520746F20796F75722035
:1019D400686F6D652073697200205072657373209F
:1019E40027412720546F002050726F63656564009F
:1019F40020312D446F6F72204F70656E0020322DA0
:101A0400446F6F7220436C6F7365002020444F4E07
:101A1400450020312D4C6967687473204F4E0020B7
:101A2400322D4C6967687473204F46460020456E1A
:101A340074657220696E74656E7369747920667258
:101A44006F6D20303A39004C4F4144494E472E2E99
:101A54002E2E2E002043757272656E742074656D8F
:101A64007065726174757265206973203A20002074
:101A74002020312D414320456E61626C6500203287
:101A84002D41432044697361626C6500205468658C
:101A94002046697273742074696D6520796F7520AE
:101AA4006E65656420746F2063726561746520617E
:101AB4006E2061646D696E0020456E746572204EFF
:101AC400616D653A2000204572726F7220706C65FA
:101AD4006173652074727920616761696E004E6F6D
:101AE4007720456E7465722050617373776F7264EA
:101AF4003A2000204C6F6720496E002049443A0088
:101B04002050415353574F52443A20002057726F8C
:101B14006E672049442F5041535300203220747281
:101B240069616C73206C65667420002031207472C6
:101B340069616C206C656674200020454D455247F0
:101B4400454E4359002043414C4C494E47203931BE
:101B54003100205375636365737366756C204C4F55
:101B640047494E0020312D414444205553455200ED
:101B740020322D52454D4F56452055534552002095
:101B8400332D4D454E55002049443A200020504104
:101B94005353574F52443A00205553455220414421
:101BA4004445440020456E746572204944265041E2
:101BB40053530020436F6D62696E65640020555372
:101BC400455220444F45534E27540020455849530D
:101BD400540020434845434B494E472E2E2E0020A7
:101BE400555345522044454C4554454400205765BF
:101BF4006C636F6D65207369720020312D446F6FC3
:101C0400722020322D4C696768740020332D44699A
:101C14006D5F4C6967687420342D41430020352D75
:101C24004261636B20546F204D61696E204D656E77
:0A1C3400750057656C636F6D650065
:00000001FF
