S0110000536D617274486F6D652E7372656383
S11300000C9434000C94840B0C94AD0B0C94D60B10
S11300100C9451000C9451000C9451000C94510018
S11300200C9451000C94710C0C9451000C94180C09
S11300300C9451000C9451000C9451000C945100F8
S11300400C9435090C9451000C9451000C945100FB
S11300500C9451006001640168016C017001740129
S113006078017C018001840111241FBECFE5D8E012
S1130070DEBFCDBF13E0A0E6B0E0E8EDF9E102C0D9
S113008005900D92A031B107D9F723E0A0E1B3E0C8
S113009001C01D92AB32B207E1F70E9410020C942A
S11300A0EA0C0C9400002091140330911503A8E885
S11300B0B3E10E94DB0C9B01AC01012E1AE05695C2
S11300C04795379527951A95D1F7102D3093280326
S11300D020932703ADECBCEC0E94DB0C969587952E
S11300E0969587959695879580932903089581E041
S11300F080932A0304C00E943D07809310038091DB
S113010010038823C1F3089560E080E00E946F0823
S113011080E790E00E94580860E081E00E946F0848
S113012080E990E00E9458082FEF89E698E1215079
S113013080409040E1F700C000000E946B082FEF60
S113014089E698E1215080409040E1F700C000002A
S11301508AE990E00E94580860E081E00E946F08FC
S113016088EA90E00E94580880E890E00E94B90C68
S11301708DE00E94AC0C89E990E00E94B90C8DE0FE
S11301800E94AC0C87EA90E00E94B90C8DE00E94BA
S1130190AC0C089561E08FE20E946B098DE00E942F
S11301A0AC0C80EB90E00E94B90C8DE00E94AC0C8A
S11301B08DEB90E00E94B90C0E94C6068133B1F425
S11301C061E08FE20E947D0A8FE39FE10197F1F7DE
S11301D000C0000062E08FE20E947D0A8DE00E9470
S11301E0AC0C8DEC90E00E94B90C08958233C1F4FC
S11301F061E08FE20E947D0A8FE697E10197F1F7B3
S113020000C0000062E08FE20E947D0A8DE00E943F
S1130210AC0C8BEC90E00E94B90C8DE00E94AC0C0D
S113022008958DE00E94AC0C82ED90E00E94B90C20
S11302308DE00E94AC0C8FED90E00E94B90C8DE033
S11302400E94AC0C0E94C606813381F480E00E94B7
S1130250AD0881E00E94AD0882E00E94AD0883E011
S11302600E94AD0884E00E94AD080895823379F4B9
S113027080E00E94D30881E00E94D30882E00E94BB
S1130280D30883E00E94D30884E00E94D308089531
S11302908DE00E94AC0C8DEE90E00E94B90C8DE0D4
S11302A00E94AC0C0E94C606882389F190E0FC01F0
S11302B0F097EA30F10558F5E65DFF4F0C94D50C44
S11302C082E00E94160C089589E10E94160C08959C
S11302D082E30E94160C08958BE40E94160C089584
S11302E084E60E94160C08958DE70E94160C08956A
S11302F086E90E94160C08958FEA0E94160C089550
S113030088EC0E94160C08958AEF0E94160C08953A
S113031043E550E064E173E080E00E940C09089535
S11303200E94880180911303813061F48091290334
S11303308C3118F00E94E2060895853128F40E9459
S1130340EF0608950E94EF060895CF93DF9387E0A8
S113035091E00E94B90C809129038823E1F32FEFE7
S113036080E792E0215080409040E1F700C0000017
S1130370809129039DEC899F912D11249695969542
S11303809695D0E3D90F990F292F220F220F920FA0
S1130390891BC0E3C80F8DE00E94AC0C2FEF80E7EF
S11303A092E0215080409040E1F700C0000084E1D9
S11303B091E00E94B90C2FEF80E792E02150804039
S11303C09040E1F700C000008D2F0E94AC0C2FEF8D
S11303D080E792E0215080409040E1F700C00000A7
S11303E08C2F0E94AC0C8DE00E94AC0C8FE291E04B
S11303F00E94B90C8DE00E94AC0C8EE391E00E9447
S1130400B90C0E94C606813321F481E08093130362
S113041004C0823311F410921303DF91CF91089535
S1130420CF93DF93CDB7DEB7A8970FB6F894DEBFAE
S11304300FBECDBF0E941C080E948F060E94C306F7
S11304400E94C9060E94F9080E94C9060E94530C22
S113045080E991E00E946C0C0E94010C82E00E94F1
S1130460160C0E945B0B61E087E10E946B090E94FD
S1130470FF0B80E00E94870881E00E94870882E0E9
S11304800E94870883E00E94870884E00E9487080E
S11304900E94FC0667E770E080E00E94760BFE0194
S11304A0319688E2DF011D928A95E9F70E94840063
S11304B010E005C00E94C606182F811104C0809167
S11304C02A038823B9F31134F9F01136F9F0809135
S11304D01003813421F4909112039130C9F08134D6
S11304E071F7809112038111EACF0E946B088CE4AA
S11304F091E00E94580860E081E00E946F088DE559
S113050091E00E945808DBCF04E103C004E101C07C
S113051005E180E090E00E94B206F82EBFEF8B1355
S1130520A0C081E691E00E94B90C2FEF8EE994E21D
S1130530215080409040E1F700C000008DE00E940F
S1130540AC0C8DE891E00E94B90C8DE00E94AC0CDB
S113055010E02CC00E94C6068D30E1F49091110386
S1130560911118C08BE991E00E94B90CAFEFBEE97C
S113057024E2A150B0402040E1F700C000008DE02B
S11305800E94AC0C8DE891E00E94B90C8DE00E94B1
S1130590AC0C0CC08D3071F049F091E090931103D4
S11305A0682F812F90E00E9499061F5F80911203AB
S11305B0882381F2109211038DE00E94AC0C8FEF1E
S11305C09EE9A4E281509040A040E1F700C0000001
S11305D083EB91E00E94B90C8DE00E94AC0C3CC00E
S11305E00E94C6068D30E1F490911103911118C058
S11305F08CE991E00E94B90CBFEF2EE984E2B1507E
S113060020408040E1F700C000008DE00E94AC0C67
S11306108DEB91E00E94B90C8DE00E94AC0C1CC0E3
S11306208D3051F091E090931103682F812F90E069
S11306300E9499061F5F10C08D3071F464E2812F0F
S113064090E00E9499061F5F612F8FEF90E00E9457
S1130650990681E08093120380911203882309F4A0
S1130660BFCF81E080931103043109F037C288ECD5
S113067091E00E94B90C8DE00E94AC0C03E0B7C07D
S113068081ED91E00E94B90C10E0EE24E39427C0C0
S11306900E94C6068D3081F49091110391110CC013
S11306A08BE991E00E94B90C8DE00E94AC0C80EDC6
S11306B091E00E94B90C13C08D3021F41092110303
S11306C0E12C0DC08D3059F091E090931103E1E0DD
S11306D0F0E0EC0FFD1FE10FF11D80831F5F91E03F
S11306E0E916B1F28DE00E94AC0C85ED91E00E9418
S11306F0B90C8DE00E94AC0C2BC00E94C6068D3054
S113070099F49091110391110FC08BE991E00E942B
S1130710B90C8DE00E94AC0C85ED91E00E94B90CFF
S11307208DE00E94AC0C14C08D3029F4109211039A
S1130730EE24E3940DC08D3059F091E090931103B1
S1130740E1E0F0E0EC0FFD1FE10FF11D80831F5F7E
S1130750EE2099F2E12C10E046C08E2D90E00E942C
S1130760B206F82EE394A4E28A1709F43FC0E1E04C
S1130770F0E0EC0FFD1FE10FF11D8081F81691F1FF
S11307808DE00E94AC0C81EE91E00E94B90C8DE0EA
S11307900E94AC0C023069F0033019F0013031F5DD
S11307A010C080EF91E00E94B90C8DE00E94AC0C67
S11307B01DC080E092E00E94B90C8DE00E94AC0C58
S11307C015C08DE00E94AC0C8FE092E00E94B90C41
S11307D08DE00E94AC0C8AE192E00E94B90C0E9468
S11307E09406FDCF1F5F183208F4B7CF0150B4E26E
S11307F0FB1246CF8DE00E94AC0C87E292E00E948F
S1130800B90C8DE00E94AC0C89E392E00E94B90C13
S11308108DE00E94AC0C85E492E00E94B90C8DE05E
S11308200E94AC0C84E592E00E94B90C8FEF90E03A
S11308300E94B206182F0E94C606823309F482C0B1
S1130840833309F4F8C08133F9F68DE00E94AC0CCF
S11308508CE592E00E94B90C0E94C6068D3099F492
S11308609091110391110FC08BE991E00E94B90C92
S11308708DE00E94AC0C8CE592E00E94B90C8DE0F6
S11308800E94AC0CE9CF8D30A1F410921103612FBA
S11308908FEF90E00E9499068DE00E94AC0C82E6F6
S11308A092E00E94B90C8FEF90E00E94B206182FDC
S11308B00CC08D3089F291E090931103682F812F41
S11308C090E00E9499061F5FC7CF0E94C6068D3034
S11308D099F49091110391110FC08BE991E00E945A
S11308E0B90C8DE00E94AC0C82E692E00E94B90C37
S11308F08DE00E94AC0CE9CF8D3051F091E09093E3
S11309001103682F812F90E00E9499061F5FDDCFAD
S11309108D30D9F664E2812F90E00E9499061092FE
S1130920110361E0610F8FEF90E00E9499068DE062
S11309300E94AC0C8DE692E00E94B90C8DE00E94FE
S1130940AC0C62CF8DE00E94AC0C89E792E00E946F
S1130950B90C88E892E00E94B90C8DE00E94AC0CBE
S113096000E010E00E94C6068D3089F0D9F3E1E082
S1130970F0E0EC0FFD1FE10FF11D80831F5F802F5E
S113098090E00E94B206843269F30F5FEBCF0F3F11
S113099079F48DE00E94AC0C82E992E00E94B90CDB
S11309A08DE00E94AC0C80EA92E00E94B90C2CCF3E
S11309B00F5F102FE12CE1E0F0E0EC0FFD1FEE0DD6
S11309C0F11DF080812F90E00E94B206F8122AC037
S11309D00F5F8DE00E94AC0C87EA92E00E94B90C94
S11309E0802F90E00E94B2068432C9F405C06FEFF4
S11309F0C7010E9499061150E12EF12CC7010E94F3
S1130A00B2068432A1F78DE00E94AC0C84EB92E034
S1130A100E94B90C8DE00E94AC0C81E008C01F5FFD
S1130A20E394C9CF1F5F0F5F0F3F29F680E0813049
S1130A3009F0ADCFE9CE8DE00E94AC0C82EC92E0DF
S1130A400E94B90C8DE00E94AC0C8FEC92E00E94E5
S1130A50B90C8DE00E94AC0C80EE92E00E94B90CBF
S1130A608DE00E94AC0C82EF92E00E94B90C8DE004
S1130A700E94AC0C0E94C606882349F18333B9F066
S1130A8028F4813341F0823361F023C08433A9F028
S1130A908533C9F01EC00E946B080E94CA0080E022
S1130AA019C00E946B080E94110180E013C00E94CB
S1130AB06B080E94480180E00DC00E946B080E94F0
S1130AC0A50180E007C00E946B0881E003C080E0BC
S1130AD001C080E0813009F0B8CF96CE053109F02D
S1130AE0C3CD87E093E00E9458082FEF8EE994E28B
S1130AF0215080409040E1F700C000000E946B0844
S1130B0003E081ED91E00E94580860E081E00E94DA
S1130B106F0810E0FF24F39439C00E943D078D3321
S1130B20E1F490911103911118C08CE991E00E94B5
S1130B305808AFEFBEE924E2A150B0402040E1F7ED
S1130B4000C000000E946B0881ED91E00E945808EB
S1130B5060E081E00E946F0819C08D3321F4109287
S1130B601103F12C13C091E090931103E1E0F0E044
S1130B70EC0FFD1FE10FF11D80830E94A0071F5F92
S1130B808FE39CE90197F1F700C00000F110C5CF95
S1130B900E946B0886ED91E00E9458089FEFAEE931
S1130BA0B4E29150A040B040E1F700C0000060E022
S1130BB081E00E946F083CC00E943D078D33E1F440
S1130BC090911103911118C08CE991E00E9458088A
S1130BD02FEF8EE994E2215080409040E1F700C06D
S1130BE000000E946B0886ED91E00E94580860E0C6
S1130BF081E00E946F081CC08D3329F41092110308
S1130C00FF24F39415C08D3399F091E09093110370
S1130C10E1E0F0E0EC0FFD1FE10FF11D80830E9485
S1130C20A0071F5FAFE3BCE91197F1F700C0000014
S1130C30FF2011F2F12C10E06DC08F2D90E00E9486
S1130C40B206F394E1E0F0E0EC0FFD1FE10FF11DBB
S1130C50908189130EC00E946B0888EA92E00E947A
S1130C6058088F2D90E00E94B206843209F051C0DA
S1130C7054C0891709F44DC00E946B0882EE91E0BC
S1130C800E945808BFEF29E688E1B1502040804017
S1130C90E1F700C0000060E081E00E946F080230CC
S1130CA0A9F0033019F00130C1F520C081EF91E0C3
S1130CB00E9458089FEFA9E6B8E19150A040B040C7
S1130CC0E1F700C000000E946B0827C081E092E0B9
S1130CD00E9458082FEF89E698E121508040904007
S1130CE0E1F700C000000E946B0817C00E946B0867
S1130CF064E080E00E946F0880E192E00E9458085E
S1130D0060E081E00E946F088BE192E00E94580845
S1130D10FFCF1F5F1F3F09F090CF0150F2CE61E07B
S1130D208DE00E946B09089561E08DE00E947D0AC8
S1130D300895E199FECF07B600FCFDCF8F3F9105E2
S1130D4009F010F48EBB04C08EBB892F83708FBB57
S1130D506DBB8CB384608CBB8CB382608CBBE1991B
S1130D60FECF0895E199FECF8F3F910509F010F46D
S1130D708EBB04C08EBB892F83708FBB8CB3816004
S1130D808CBB8DB308950E949A0C08950E94B00CF8
S1130D90089561E08CE20E946B0961E08DE20E949B
S1130DA06B0961E083E20E946B0961E082E20E94C8
S1130DB06B0961E081E20E946B0961E084E20E94B8
S1130DC06B09089561E08CE20E947D0A61E083E290
S1130DD00E947D0A62E082E20E947D0A089562E038
S1130DE08CE20E947D0A62E083E20E947D0A62E056
S1130DF082E20E947D0A089561E088E10E946B0905
S1130E0061E089E10E946B0961E08AE10E946B095B
S1130E1061E08BE10E946B0962E08EE10E946B0944
S1130E2062E08FE10E946B0962E080E20E946B093C
S1130E3062E081E20E946B0961E088E10E947D0A20
S1130E4061E089E10E947D0A61E08AE10E947D0AF5
S1130E5061E08BE10E947D0A61E08EE10E94F40969
S1130E6061E08FE10E94F40961E080E20E94F409EC
S1130E7061E081E20E94F4090895FF920F931F93A9
S1130E80CF93DF93CDB7DEB760970FB6F894DEBF8C
S1130E900FBECDBF80E1E0E6F0E0DE0111960190E7
S1130EA00D928A95E1F708E1F12C3BC062E0802FB6
S1130EB00E947D0A1EE12EC0812F0E94060B811123
S1130EC028C02FEF40E752E0215040405040E1F766
S1130ED000C00000812F0E94060B81111AC0812FCF
S1130EE00E94060B8823D9F3802F90E04897212F86
S1130EF030E02E513109880F991F880F991F41E066
S1130F0050E04C0F5D1F840F951FFC01E20FF31F8F
S1130F10F0801F5F123280F261E0802F0E947D0A10
S1130F200F5F0C3118F28F2D60960FB6F894DEBF68
S1130F300FBECDBFDF91CF911F910F91FF90089508
S1130F40CF93C82F61E085E10E947D0A8BB39C2F6B
S1130F50907F8F70892B8BBB61E08EE20E947D0AAB
S1130F608FE99FE00197F1F700C0000062E08EE294
S1130F700E947D0A8FE19EE40197F1F700C0000012
S1130F8020E1C29FC00111249BB39F70892B8BBBAE
S1130F9061E08EE20E947D0A8FE99FE00197F1F7FC
S1130FA000C0000062E08EE20E947D0A8FE19EE4B0
S1130FB00197F1F700C00000CF910895CF93C82F97
S1130FC062E085E10E947D0A8BB39C2F907F8F7035
S1130FD0892B8BBB61E08EE20E947D0A8FE99FE042
S1130FE00197F1F700C0000062E08EE20E947D0AE2
S1130FF08FE19EE40197F1F700C0000020E1C29F59
S1131000C00111249BB39F70892B8BBB61E08EE2DE
S11310100E947D0A8FE99FE00197F1F700C000006C
S113102062E08EE20E947D0A8FE19EE40197F1F76F
S113103000C00000CF91089561E08EE00E946B092A
S113104061E08FE00E946B0961E080E10E946B091E
S113105061E081E10E946B0961E085E10E946B0916
S113106061E08EE20E946B0961E086E10E946B09F7
S113107062E086E10E947D0A2FEF83ED90E3215028
S113108080409040E1F700C0000083E30E94DE0747
S113109082E30E94DE0788E20E94DE078CE00E9461
S11310A0DE0781E00E94DE0782E00E94DE070895E9
S11310B00F931F93CF938C01C0E003C00E94A0073D
S11310C0CF5FF801EC0FF11D80818111F7CFCF9133
S11310D01F910F91089581E00E94DE070895CF9338
S11310E0DF9300D0CDB7DEB790E8998390EC9A8374
S11310F0E1E0F0E0EC0FFD1FE80FF11D8081860FA9
S11311000E94DE070F900F90DF91CF9108958230F7
S1131110A9F028F4882341F0813059F008958330F0
S113112091F08430A9F0089561E084E20E946B0993
S1131130089561E085E20E946B09089561E08BE205
S11311400E946B09089561E084E10E946B0908958F
S113115061E08DE20E946B0908958230A9F028F4C1
S1131160882341F0813059F00895833091F0843020
S1131170A9F0089561E084E20E947D0A089561E087
S113118085E20E947D0A089561E08BE20E947D0A57
S1131190089561E084E10E947D0A089561E08DE292
S11311A00E947D0A08958230A9F028F4882341F032
S11311B0813059F00895833091F08430A9F0089576
S11311C062E084E20E947D0A089562E085E20E9462
S11311D07D0A089562E08BE20E947D0A089562E030
S11311E084E10E947D0A089562E08DE20E947D0AF6
S11311F0089587B18F7787B987B1806487B987B13C
S11312008F7D87B986B1887F86B986B1876086B9B4
S113121086B1806886B908956115710501F141159B
S11312205105F9F09091160391111DC091E090932E
S1131230160370931A036093190350931803409391
S1131240170397B1907E97B997B1892B87B986B167
S1131250806486B986B1886086B981E0089583E0A8
S1131260089583E0089581E008951F920F920FB6C8
S11312700F9211242F933F934F935F936F937F9318
S11312808F939F93AF93BF93EF93FF93E0911903D1
S1131290F0911A0384B195B19183808386B1877FDD
S11312A086B910921603E0911703F0911803309752
S11312B009F00995FF91EF91BF91AF919F918F91A3
S11312C07F916F915F914F913F912F910F900FBE3E
S11312D00F901F9018959DEC899F912D1124292F13
S11312E0269526952695220F322F330F330F230F81
S11312F0821B282F969596959695613019F0623049
S1131300C1F108959230A1F018F4913031F00895AC
S11313109330C9F0943011F108953AB381E090E02C
S113132002C0880F991F2A95E2F7832B8ABB089580
S113133037B381E090E002C0880F991F2A95E2F745
S1131340832B87BB089534B381E090E002C0880FFB
S1131350991F2A95E2F7832B84BB089531B381E06A
S113136090E002C0880F991F2A95E2F7832B81BB76
S113137008959230A9F018F4913031F00895933023
S1131380D9F0943029F108953AB381E090E002C095
S1131390880F991F2A95E2F7809583238ABB0895C5
S11313A037B381E090E002C0880F991F2A95E2F7D5
S11313B08095832387BB089534B381E090E002C015
S11313C0880F991F2A95E2F78095832384BB08959B
S11313D031B381E090E002C0880F991F2A95E2F7AB
S11313E08095832381BB08959DEC899F912D1124C1
S11313F0292F269526952695220F322F330F330F4A
S1131400230F821B282F969596959695613019F097
S11314106230C1F108959230A1F018F4913031F0A6
S113142008959330C9F0943011F108953BB381E0ED
S113143090E002C0880F991F2A95E2F7832B8BBB9B
S1131440089538B381E090E002C0880F991F2A956F
S1131450E2F7832B88BB089535B381E090E002C0A6
S1131460880F991F2A95E2F7832B85BB089532B321
S113147081E090E002C0880F991F2A95E2F7832B40
S113148082BB08959230A9F018F4913031F0089598
S11314909330D9F0943029F108953BB381E090E082
S11314A002C0880F991F2A95E2F7809583238BBB8E
S11314B0089538B381E090E002C0880F991F2A95FF
S11314C0E2F78095832388BB089535B381E090E0EB
S11314D002C0880F991F2A95E2F78095832385BB64
S11314E0089532B381E090E002C0880F991F2A95D5
S11314F0E2F78095832382BB08959DEC899F912D0B
S11315001124292F269526952695220F322F330F45
S1131510330F230F821B282F96959695969561304D
S113152019F06230C1F108959230A1F018F49130AD
S113153031F008959330C9F0943011F108953BB31C
S113154081E090E002C0880F991F2A95E2F7832B6F
S11315508BBB089538B381E090E002C0880F991FD7
S11315602A95E2F7832B88BB089535B381E090E098
S113157002C0880F991F2A95E2F7832B85BB089533
S113158032B381E090E002C0880F991F2A95E2F7F8
S1131590832B82BB08959230A9F018F4913031F076
S11315A008959330D9F0943029F108953BB381E044
S11315B090E002C0880F991F2A95E2F78095832353
S11315C08BBB089538B381E090E002C0880F991F67
S11315D02A95E2F78095832388BB089535B381E08B
S11315E090E002C0880F991F2A95E2F78095832323
S11315F085BB089532B381E090E002C0880F991F43
S11316002A95E2F78095832382BB08959DEC899FF8
S1131610912D1124292F269526952695220F322FB8
S1131620330F330F230F821B282F892F869586951E
S11316308695823091F018F4813031F029C08330DE
S1131640A9F08430E1F024C089B390E002C09595FC
S113165087952A95E2F78170089586B390E002C0D9
S1131660959587952A95E2F78170089583B390E064
S113167002C0959587952A95E2F78170089580B305
S113168090E002C0959587952A95E2F781700895B8
S113169080E0089562E08AE20E946B0962E08BE2D6
S11316A00E946B0961E08AE20E94F40961E08AE227
S11316B00E94F40908950E944A0B85B78E7F85BF66
S11316C085B7826085BF85B7846085BF85B7877F0E
S11316D085BF84B7877F84BF8BB780648BBF8BB78C
S11316E08F778BBF8BB78F7D8BBF08956115710585
S11316F051F0833040F4E82FF0E0EE0FFF1FE55E79
S1131700FC4F7183608308951F920F920FB60F925E
S113171011242F933F934F935F936F937F938F93F2
S11317209F93AF93BF93EF93FF93E0911B03F091CB
S11317301C03309709F00995FF91EF91BF91AF9188
S11317409F918F917F916F915F914F913F912F91D5
S11317500F900FBE0F901F9018951F920F920FB607
S11317600F9211242F933F934F935F936F937F9323
S11317708F939F93AF93BF93EF93FF93E0911D03D8
S1131780F0911E03309709F00995FF91EF91BF91F5
S1131790AF919F918F917F916F915F914F913F9105
S11317A02F910F900FBE0F901F9018951F920F92BC
S11317B00FB60F9211242F933F934F935F936F9320
S11317C07F938F939F93AF93BF93EF93FF93E09196
S11317D01F03F0912003309709F00995FF91EF91D1
S11317E0BF91AF919F918F917F916F915F914F9135
S11317F03F912F910F900FBE0F901F9018957894E2
S1131800089583B7806483BF83B7886083BF80E70C
S113181082BF83B7887F83BF83B7836083BF83B767
S11318208F7E83BF83B7806283BF08958CBF089582
S11318301F920F920FB60F9211242F933F934F9341
S11318405F936F937F938F939F93AF93BF93EF9324
S1131850FF93809121039091220301969093220398
S113186080932103813D934069F480E782BF109205
S1131870220310922103E0912503F091260330976F
S113188009F00995FF91EF91BF91AF919F918F91CD
S11318907F916F915F914F913F912F910F900FBE68
S11318A00F901F9018958FB58E7F8FBD8FB58D7F4C
S11318B08FBD8EB5877F8EBD8EB58F7E8EBD8EB566
S11318C081608EBD8EB58D7F8EBD8EB584608EBDDC
S11318D089B7846089BF0895909324038093230378
S11318E008951F920F920FB60F9211242F933F93D6
S11318F04F935F936F937F938F939F93AF93BF9314
S1131900EF93FF93E0912303F0912403309709F0C0
S11319100995FF91EF91BF91AF919F918F917F9125
S11319206F915F914F913F912F910F900FBE0F9048
S11319301F90189581B38E7F81BB81B3826081BB78
S113194087E689B910BC86E880BD8AB180618AB90E
S11319508AB188608AB908958CB95E9BFECF0895D8
S113196004C080912A03811102C05F9BFACF8CB11D
S113197008950F931F93CF93009759F412C00E94B8
S1131980AC0CCF5F8FE39CE90197F1F700C0000036
S113199002C08C01C0E0F801EC0FF11D80818111BF
S11319A0EECFCF911F910F910895EE0FFF1F059079
S11319B0F491E02D0994A29FB001B39FC001A39FAD
S11319C0700D811D1124911DB29F700D811D112474
S10B19D0911D0895F894FFCF66
S11319D83132334134353642373839432A303D447D
S11319E857656C636F6D6520746F20796F7572002D
S11319F857656C636F6D6520746F20796F757220FD
S1131A08686F6D6520736972002050726573732066
S1131A1827412720546F002050726F636565640066
S1131A2820312D446F6F72204F70656E0020322D67
S1131A38446F6F7220436C6F7365002020444F4ECF
S1131A48450020312D4C6967687473204F4E00207F
S1131A58322D4C6967687473204F46460020456EE2
S1131A6874657220696E74656E7369747920667220
S1131A786F6D20303A39004C4F4144494E472E2E61
S1131A882E2E2E002043757272656E742074656D57
S1131A987065726174757265206973203A2000203C
S1131AA82020312D414320456E61626C650020324F
S1131AB82D41432044697361626C65005448455262
S1131AC8452753204E4F2041444D494E0059455413
S1131AD800205468652046697273742074696D65C2
S1131AE820796F75206E65656420746F2063726554
S1131AF861746520616E2061646D696E0020456EB5
S1131B08746572204E616D653A2000204572726FCB
S1131B187220706C656173652074727920616761E5
S1131B28696E004E6F7720456E746572205061733C
S1131B3873776F72643A2000204C6F6720496E00F7
S1131B482049443A002050415353574F52443A20B5
S1131B58002057726F6E672049442F504153530039
S1131B68203220747269616C73206C65667420007D
S1131B78203120747269616C206C656674200020C1
S1131B88454D455247454E4359002043414C4C4925
S1131B984E4720393131002053756363657373668A
S1131BA8756C204C4F47494E0020312D4144442048
S1131BB8555345520020322D52454D4F5645205518
S1131BC85345520020332D4D454E55002049443A83
S1131BD820002050415353574F52443A0020555344
S1131BE845522041444445440020456E74657220A2
S1131BF8494426504153530020436F6D62696E6512
S1131C086400205553455220444F45534E275400F1
S1131C182045584953540020434845434B494E47AF
S1131C282E2E2E0020555345522044454C455445EC
S1131C3844002057656C636F6D65207369720020DA
S1131C48312D446F6F722020322D4C6967687400FF
S1131C5820332D44696D5F4C6967687420342D41C5
S1131C68430020352D4261636B20546F204D616918
S1131C786E204D656E750057656C636F6D65000069
S9030000FC
